{
  "contracts/ZenoVerse.sol": {
    "ZenoVerse": {
      "abi": [
        {
          "inputs": [],
          "stateMutability": "nonpayable",
          "type": "constructor"
        },
        {
          "anonymous": false,
          "inputs": [
            {
              "indexed": true,
              "internalType": "address",
              "name": "owner",
              "type": "address"
            },
            {
              "indexed": true,
              "internalType": "address",
              "name": "approved",
              "type": "address"
            },
            {
              "indexed": true,
              "internalType": "uint256",
              "name": "tokenId",
              "type": "uint256"
            }
          ],
          "name": "Approval",
          "type": "event"
        },
        {
          "anonymous": false,
          "inputs": [
            {
              "indexed": true,
              "internalType": "address",
              "name": "owner",
              "type": "address"
            },
            {
              "indexed": true,
              "internalType": "address",
              "name": "operator",
              "type": "address"
            },
            {
              "indexed": false,
              "internalType": "bool",
              "name": "approved",
              "type": "bool"
            }
          ],
          "name": "ApprovalForAll",
          "type": "event"
        },
        {
          "anonymous": false,
          "inputs": [
            {
              "indexed": false,
              "internalType": "uint256",
              "name": "_fromTokenId",
              "type": "uint256"
            },
            {
              "indexed": false,
              "internalType": "uint256",
              "name": "_toTokenId",
              "type": "uint256"
            }
          ],
          "name": "BatchMetadataUpdate",
          "type": "event"
        },
        {
          "anonymous": false,
          "inputs": [
            {
              "indexed": false,
              "internalType": "uint256",
              "name": "_tokenId",
              "type": "uint256"
            }
          ],
          "name": "MetadataUpdate",
          "type": "event"
        },
        {
          "anonymous": false,
          "inputs": [
            {
              "indexed": true,
              "internalType": "address",
              "name": "to",
              "type": "address"
            },
            {
              "indexed": true,
              "internalType": "uint256",
              "name": "tokenId",
              "type": "uint256"
            },
            {
              "indexed": false,
              "internalType": "string",
              "name": "tokenURI",
              "type": "string"
            }
          ],
          "name": "ObservationMinted",
          "type": "event"
        },
        {
          "anonymous": false,
          "inputs": [
            {
              "indexed": true,
              "internalType": "address",
              "name": "previousOwner",
              "type": "address"
            },
            {
              "indexed": true,
              "internalType": "address",
              "name": "newOwner",
              "type": "address"
            }
          ],
          "name": "OwnershipTransferred",
          "type": "event"
        },
        {
          "anonymous": false,
          "inputs": [
            {
              "indexed": true,
              "internalType": "address",
              "name": "from",
              "type": "address"
            },
            {
              "indexed": true,
              "internalType": "address",
              "name": "to",
              "type": "address"
            },
            {
              "indexed": true,
              "internalType": "uint256",
              "name": "tokenId",
              "type": "uint256"
            }
          ],
          "name": "Transfer",
          "type": "event"
        },
        {
          "inputs": [
            {
              "internalType": "address",
              "name": "to",
              "type": "address"
            },
            {
              "internalType": "uint256",
              "name": "tokenId",
              "type": "uint256"
            }
          ],
          "name": "approve",
          "outputs": [],
          "stateMutability": "nonpayable",
          "type": "function"
        },
        {
          "inputs": [
            {
              "internalType": "address",
              "name": "owner",
              "type": "address"
            }
          ],
          "name": "balanceOf",
          "outputs": [
            {
              "internalType": "uint256",
              "name": "",
              "type": "uint256"
            }
          ],
          "stateMutability": "view",
          "type": "function"
        },
        {
          "inputs": [
            {
              "internalType": "uint256",
              "name": "tokenId",
              "type": "uint256"
            }
          ],
          "name": "burn",
          "outputs": [],
          "stateMutability": "nonpayable",
          "type": "function"
        },
        {
          "inputs": [
            {
              "internalType": "address",
              "name": "owner",
              "type": "address"
            }
          ],
          "name": "getAllTokensByOwner",
          "outputs": [
            {
              "internalType": "uint256[]",
              "name": "",
              "type": "uint256[]"
            }
          ],
          "stateMutability": "view",
          "type": "function"
        },
        {
          "inputs": [
            {
              "internalType": "uint256",
              "name": "tokenId",
              "type": "uint256"
            }
          ],
          "name": "getApproved",
          "outputs": [
            {
              "internalType": "address",
              "name": "",
              "type": "address"
            }
          ],
          "stateMutability": "view",
          "type": "function"
        },
        {
          "inputs": [
            {
              "internalType": "uint256",
              "name": "tokenId",
              "type": "uint256"
            }
          ],
          "name": "getObservationMetadata",
          "outputs": [
            {
              "internalType": "string",
              "name": "",
              "type": "string"
            }
          ],
          "stateMutability": "view",
          "type": "function"
        },
        {
          "inputs": [
            {
              "internalType": "address",
              "name": "owner",
              "type": "address"
            },
            {
              "internalType": "address",
              "name": "operator",
              "type": "address"
            }
          ],
          "name": "isApprovedForAll",
          "outputs": [
            {
              "internalType": "bool",
              "name": "",
              "type": "bool"
            }
          ],
          "stateMutability": "view",
          "type": "function"
        },
        {
          "inputs": [
            {
              "internalType": "address",
              "name": "to",
              "type": "address"
            },
            {
              "internalType": "string",
              "name": "uri",
              "type": "string"
            }
          ],
          "name": "mintObservation",
          "outputs": [
            {
              "internalType": "uint256",
              "name": "",
              "type": "uint256"
            }
          ],
          "stateMutability": "nonpayable",
          "type": "function"
        },
        {
          "inputs": [],
          "name": "name",
          "outputs": [
            {
              "internalType": "string",
              "name": "",
              "type": "string"
            }
          ],
          "stateMutability": "view",
          "type": "function"
        },
        {
          "inputs": [],
          "name": "owner",
          "outputs": [
            {
              "internalType": "address",
              "name": "",
              "type": "address"
            }
          ],
          "stateMutability": "view",
          "type": "function"
        },
        {
          "inputs": [
            {
              "internalType": "uint256",
              "name": "tokenId",
              "type": "uint256"
            }
          ],
          "name": "ownerOf",
          "outputs": [
            {
              "internalType": "address",
              "name": "",
              "type": "address"
            }
          ],
          "stateMutability": "view",
          "type": "function"
        },
        {
          "inputs": [],
          "name": "renounceOwnership",
          "outputs": [],
          "stateMutability": "nonpayable",
          "type": "function"
        },
        {
          "inputs": [
            {
              "internalType": "address",
              "name": "from",
              "type": "address"
            },
            {
              "internalType": "address",
              "name": "to",
              "type": "address"
            },
            {
              "internalType": "uint256",
              "name": "tokenId",
              "type": "uint256"
            }
          ],
          "name": "safeTransferFrom",
          "outputs": [],
          "stateMutability": "nonpayable",
          "type": "function"
        },
        {
          "inputs": [
            {
              "internalType": "address",
              "name": "from",
              "type": "address"
            },
            {
              "internalType": "address",
              "name": "to",
              "type": "address"
            },
            {
              "internalType": "uint256",
              "name": "tokenId",
              "type": "uint256"
            },
            {
              "internalType": "bytes",
              "name": "data",
              "type": "bytes"
            }
          ],
          "name": "safeTransferFrom",
          "outputs": [],
          "stateMutability": "nonpayable",
          "type": "function"
        },
        {
          "inputs": [
            {
              "internalType": "address",
              "name": "operator",
              "type": "address"
            },
            {
              "internalType": "bool",
              "name": "approved",
              "type": "bool"
            }
          ],
          "name": "setApprovalForAll",
          "outputs": [],
          "stateMutability": "nonpayable",
          "type": "function"
        },
        {
          "inputs": [
            {
              "internalType": "uint256",
              "name": "tokenId",
              "type": "uint256"
            },
            {
              "internalType": "string",
              "name": "newURI",
              "type": "string"
            }
          ],
          "name": "setTokenURI",
          "outputs": [],
          "stateMutability": "nonpayable",
          "type": "function"
        },
        {
          "inputs": [
            {
              "internalType": "bytes4",
              "name": "interfaceId",
              "type": "bytes4"
            }
          ],
          "name": "supportsInterface",
          "outputs": [
            {
              "internalType": "bool",
              "name": "",
              "type": "bool"
            }
          ],
          "stateMutability": "view",
          "type": "function"
        },
        {
          "inputs": [],
          "name": "symbol",
          "outputs": [
            {
              "internalType": "string",
              "name": "",
              "type": "string"
            }
          ],
          "stateMutability": "view",
          "type": "function"
        },
        {
          "inputs": [
            {
              "internalType": "uint256",
              "name": "tokenId",
              "type": "uint256"
            }
          ],
          "name": "tokenURI",
          "outputs": [
            {
              "internalType": "string",
              "name": "",
              "type": "string"
            }
          ],
          "stateMutability": "view",
          "type": "function"
        },
        {
          "inputs": [
            {
              "internalType": "address",
              "name": "from",
              "type": "address"
            },
            {
              "internalType": "address",
              "name": "to",
              "type": "address"
            },
            {
              "internalType": "uint256",
              "name": "tokenId",
              "type": "uint256"
            }
          ],
          "name": "transferFrom",
          "outputs": [],
          "stateMutability": "nonpayable",
          "type": "function"
        },
        {
          "inputs": [
            {
              "internalType": "address",
              "name": "newOwner",
              "type": "address"
            }
          ],
          "name": "transferOwnership",
          "outputs": [],
          "stateMutability": "nonpayable",
          "type": "function"
        }
      ],
      "evm": {
        "bytecode": {
          "linkReferences": {},
          "object": "60803462000358576001600160401b03906040818101838111838210176200034257815260098252602091685a656e6f566572736560b81b83820152815193828501858110828211176200034257835260058552645a454e4f5360d81b84860152815181811162000342576000948554916001948584811c9416801562000337575b8385101462000323578190601f94858111620002d0575b5083908583116001146200026c57899262000260575b5050600019600383901b1c191690851b1786555b86519283116200024c5783548481811c9116801562000241575b828210146200022d57828111620001e5575b50809183116001146200017e57508495829394959262000172575b5050600019600383901b1c191690821b1790555b60078054336001600160a01b03198216811790925591519290916001600160a01b0316907f8be0079c531659141344cd1fd0a4f28419497f9722a3daafe3b4186f6b6457e09080a3611b8a90816200035e8239f35b01519050388062000109565b90601f198316968487528287209287905b898210620001cd575050838596979810620001b3575b505050811b0190556200011d565b015160001960f88460031b161c19169055388080620001a5565b8087859682949686015181550195019301906200018f565b8487528187208380860160051c82019284871062000223575b0160051c019085905b82811062000217575050620000ee565b88815501859062000207565b92508192620001fe565b634e487b7160e01b87526022600452602487fd5b90607f1690620000dc565b634e487b7160e01b86526041600452602486fd5b015190503880620000ae565b898052848a208894509190601f1984168b5b87828210620002b957505084116200029f575b505050811b018655620000c2565b015160001960f88460031b161c1916905538808062000291565b8385015186558b979095019493840193016200027e565b9091508880528389208580850160051c82019286861062000319575b918991869594930160051c01915b8281106200030a57505062000098565b8b8155859450899101620002fa565b92508192620002ec565b634e487b7160e01b88526022600452602488fd5b93607f169362000081565b634e487b7160e01b600052604160045260246000fd5b600080fdfe6080604081815260048036101561001557600080fd5b600092833560e01c90816301ffc9a714610f345750806306fdde0314610e8c578063081812fc14610e6c578063095ea7b314610cff578063162094c414610c5357806323b872dd14610c2e57806342842e0e14610bfa57806342966c681461099a5780636352211e1461096957806368a5f3221461076757806370a08231146106d1578063715018a6146106745780638da5cb5b1461064b57806395d89b4114610568578063a22cb46514610499578063b6ac7270146103fb578063b88d4fde1461036d578063c87b56dd14610335578063e985e9c5146102e7578063e9fda7d4146101d35763f2fde38b1461010a57600080fd5b346101cf5760203660031901126101cf57610123610ffa565b9061012c611125565b6001600160a01b0391821692831561017d575050600754826001600160601b0360a01b821617600755167f8be0079c531659141344cd1fd0a4f28419497f9722a3daafe3b4186f6b6457e08380a380f35b906020608492519162461bcd60e51b8352820152602660248201527f4f776e61626c653a206e6577206f776e657220697320746865207a65726f206160448201526564647265737360d01b6064820152fd5b8280fd5b5082346102e457602091826003193601126102e0576001600160a01b036101f8610ffa565b169081156102895750819392935260098352818120908251808584549182815201908194845286842090845b818110610275575050508161023a91038261105d565b83519485948186019282875251809352850193925b82811061025e57505050500390f35b83518552869550938101939281019260010161024f565b825484529288019260019283019201610224565b845162461bcd60e51b8152908101849052602b60248201527f5a656e6f56657273653a204f776e65722063616e6e6f7420626520746865207a60448201526a65726f206164647265737360a81b6064820152608490fd5b5080fd5b80fd5b5050346102e057806003193601126102e05760ff81602093610307610ffa565b61030f611015565b6001600160a01b0391821683526005875283832091168252855220549151911615158152f35b5091346102e45760203660031901126102e45750610356610369923561179b565b9051918291602083526020830190610fba565b0390f35b8382346102e05760803660031901126102e057610388610ffa565b90610391611015565b916044356064359367ffffffffffffffff85116103f757366023860112156103f7576103cc6103ef948660246103f49836930135910161109b565b926103df6103da843361133d565b611264565b6103ea838383611405565b611714565b611319565b80f35b8580fd5b5082346102e45760203660031901126102e4575080356000818152600260205260409020549091906001600160a01b03161561043e57610369836103568461179b565b608490602084519162461bcd60e51b8352820152602f60248201527f5a656e6f56657273653a204d6574616461746120717565727920666f72206e6f60448201526e3732bc34b9ba32b73a103a37b5b2b760891b6064820152fd5b5090346101cf57806003193601126101cf576104b3610ffa565b9060243591821515809303610564576001600160a01b0316923384146105225750338452600560205280842083855260205280842060ff1981541660ff8416179055519081527f17307eab39ab6107e8899845ad3d59bd9653f200f220920489ca2b5937696c3160203392a380f35b6020606492519162461bcd60e51b8352820152601960248201527f4552433732313a20617070726f766520746f2063616c6c6572000000000000006044820152fd5b8480fd5b5050346102e057816003193601126102e05780519082600180549161058c836111ec565b8086529282811690811561062357506001146105c7575b5050506105b58261036994038361105d565b51918291602083526020830190610fba565b94508085527fb10e2d527612073b26eecdfd717e6a320cf44b4afac2b0732d9fcbe2b7fa0cf65b82861061060b575050506105b582602061036995820101946105a3565b805460208787018101919091529095019481016105ee565b6103699750869350602092506105b594915060ff191682840152151560051b820101946105a3565b5050346102e057816003193601126102e05760075490516001600160a01b039091168152602090f35b83346102e457806003193601126102e45761068d611125565b600780546001600160a01b0319811690915581906001600160a01b03167f8be0079c531659141344cd1fd0a4f28419497f9722a3daafe3b4186f6b6457e08280a380f35b508290346102e05760203660031901126102e0576001600160a01b036106f5610ffa565b169081156107125760208480858581526003845220549051908152f35b608490602085519162461bcd60e51b8352820152602960248201527f4552433732313a2061646472657373207a65726f206973206e6f7420612076616044820152683634b21037bbb732b960b91b6064820152fd5b509190346102e057806003193601126102e057610782610ffa565b9160243567ffffffffffffffff81116102e0576107a290369086016110d2565b6107aa611125565b60016008540193846008558351906107c18261102b565b8382526001600160a01b038116938415610926576000878152600260205260409020546107fa906001600160a01b031615155b15611879565b84815260209760098952868220805491600160401b83101561091357507f450303c49c929e2b5d30cc374bc9ecf1893407c820081737f60ba34ce096f6db948961090a95818a819b9a978f6002908f61087c866108638d6103ef9d6108ef9f6001018155611ae6565b90919082549060031b91821b91600019901b1916179055565b60008681526002602052604090205461089f906001600160a01b031615156107f4565b84845260038252832080546001019055848352528d812080546001600160a01b031916831790557fddf252ad1be2c89b69c2b068fc378daa952ba7f163c4a11628f55a4df523b3ef8180a46115fa565b6108f981866118dc565b855191829189835289830190610fba565b0390a351908152f35b634e487b7160e01b845260419052602483fd5b855162461bcd60e51b81526020818a0181905260248201527f4552433732313a206d696e7420746f20746865207a65726f20616464726573736044820152606490fd5b5091346102e45760203660031901126102e45750610989602092356111c9565b90516001600160a01b039091168152f35b509190346102e057602091826003193601126102e45783356109ba611125565b6109c3816111c9565b6001600160a01b0393846109d6846111c9565b1680610b5f575b5090919293946009906109ef856111c9565b9685875288825280848820986001600160601b0360a01b998a8154169055169485885286886003978886528782209b6000199c8d8154019055838352600287528883209081541690557fddf252ad1be2c89b69c2b068fc378daa952ba7f163c4a11628f55a4df523b3ef8280a460068352610a6c858920546111ec565b610b00575b16865252832091835b835480821015610af55782610a8f8387611ae6565b905490861b1c14610aa95750610aa490611ac1565b610a7a565b809250959093949501908111610ae2576103f4949550610add9291610ad16108639286611ae6565b9054911b1c9184611ae6565b611b14565b634e487b7160e01b855260118652602485fd5b505050505091505080f35b8688526006835287858120610b1581546111ec565b80610b23575b505050610a71565b82601f8211600114610b3b575050555b873880610b1b565b9091808252610b58601f888420940160051c8401600185016118c5565b5555610b33565b84526009865280842095845b875480821015610bea578590610b81838b611ae6565b929054600393841b1c14610b9f575050610b9a90611ac1565b610b6b565b60009993949596979899198101908111610bd757610bcc926108638593610ad1610add9460099998611ae6565b9594939291906109dd565b634e487b7160e01b895260118b52602489fd5b5050600991929394959650610bcc565b5050346102e0576103ef6103f491610c11366110f0565b91925192610c1e8461102b565b8684526103df6103da843361133d565b83346102e4576103f4610c40366110f0565b91610c4e6103da843361133d565b611405565b508290346102e057826003193601126102e057803560243567ffffffffffffffff8111610cfb57610c8790369084016110d2565b91610c90611125565b6000828152600260205260409020546001600160a01b031615610cb85750906103f4916118dc565b606490602086519162461bcd60e51b8352820152601f60248201527f5a656e6f56657273653a20546f6b656e20646f6573206e6f74206578697374006044820152fd5b8380fd5b50346101cf57816003193601126101cf57610d18610ffa565b6024359290916001600160a01b0391908280610d33876111c9565b16941693808514610e1f57803314908115610e00575b5015610d9857848652602052842080546001600160a01b03191683179055610d70836111c9565b167f8c5be1e5ebec7d5bd14f71427d1e84f3dd0314c0f7b2291e5b200ac8c7c3b9258480a480f35b6020608492519162461bcd60e51b8352820152603d60248201527f4552433732313a20617070726f76652063616c6c6572206973206e6f7420746f60448201527f6b656e206f776e6572206f7220617070726f76656420666f7220616c6c0000006064820152fd5b90508652600560205281862033875260205260ff828720541638610d49565b506020608492519162461bcd60e51b8352820152602160248201527f4552433732313a20617070726f76616c20746f2063757272656e74206f776e656044820152603960f91b6064820152fd5b5091346102e45760203660031901126102e4575061098960209235611226565b5050346102e057816003193601126102e057805190828054610ead816111ec565b808552916001918083169081156106235750600114610ed8575050506105b58261036994038361105d565b80809650527f290decd9548b62a8d60345a988386fc84ba6bc95484008f6362f93160ef3e5635b828610610f1c575050506105b582602061036995820101946105a3565b80546020878701810191909152909501948101610eff565b925050346101cf5760203660031901126101cf573563ffffffff60e01b81168091036101cf5760209250632483248360e11b8114908115610f77575b5015158152f35b6380ac58cd60e01b811491508115610fa9575b8115610f98575b5038610f70565b6301ffc9a760e01b14905038610f91565b635b5e139f60e01b81149150610f8a565b919082519283825260005b848110610fe6575050826000602080949584010152601f8019910116010190565b602081830181015184830182015201610fc5565b600435906001600160a01b038216820361101057565b600080fd5b602435906001600160a01b038216820361101057565b6020810190811067ffffffffffffffff82111761104757604052565b634e487b7160e01b600052604160045260246000fd5b90601f8019910116810190811067ffffffffffffffff82111761104757604052565b67ffffffffffffffff811161104757601f01601f191660200190565b9291926110a78261107f565b916110b5604051938461105d565b829481845281830111611010578281602093846000960137010152565b9080601f83011215611010578160206110ed9335910161109b565b90565b6060906003190112611010576001600160a01b0390600435828116810361101057916024359081168103611010579060443590565b6007546001600160a01b0316330361113957565b606460405162461bcd60e51b815260206004820152602060248201527f4f776e61626c653a2063616c6c6572206973206e6f7420746865206f776e65726044820152fd5b1561118457565b60405162461bcd60e51b815260206004820152601860248201527f4552433732313a20696e76616c696420746f6b656e20494400000000000000006044820152606490fd5b6000908152600260205260409020546001600160a01b03166110ed81151561117d565b90600182811c9216801561121c575b602083101461120657565b634e487b7160e01b600052602260045260246000fd5b91607f16916111fb565b600081815260026020526040902054611249906001600160a01b0316151561117d565b6000908152600460205260409020546001600160a01b031690565b1561126b57565b60405162461bcd60e51b815260206004820152602d60248201527f4552433732313a2063616c6c6572206973206e6f7420746f6b656e206f776e6560448201526c1c881bdc88185c1c1c9bdd9959609a1b6064820152608490fd5b60809060208152603260208201527f4552433732313a207472616e7366657220746f206e6f6e20455243373231526560408201527131b2b4bb32b91034b6b83632b6b2b73a32b960711b60608201520190565b1561132057565b60405162461bcd60e51b815280611339600482016112c6565b0390fd5b906001600160a01b038080611351846111c9565b16931691838314938415611384575b50831561136e575b50505090565b61137a91929350611226565b1614388080611368565b909350600052600560205260406000208260005260205260ff604060002054169238611360565b156113b257565b60405162461bcd60e51b815260206004820152602560248201527f4552433732313a207472616e736665722066726f6d20696e636f72726563742060448201526437bbb732b960d91b6064820152608490fd5b9061142d91611413846111c9565b6001600160a01b03939184169284929091831684146113ab565b169182156115a95781611510575b600090838252600960205260408220805490600160401b8210156114fc577fddf252ad1be2c89b69c2b068fc378daa952ba7f163c4a11628f55a4df523b3ef93926114948861086385899560016114a498018155611ae6565b61149d886111c9565b16146113ab565b8481526004602052604081206001600160601b0360a01b9081815416905583825260036020526040822060001981540190558482526040822060018154019055858252600260205284604083209182541617905580a4565b634e487b7160e01b84526041600452602484fd5b929190600093818552600960205260408520855b81548082101561159c57869061153a8385611ae6565b929054600393841b1c1461155857505061155390611ac1565b611524565b90919293949596976000198201918211611588575091610863610add92610ad1869561158397611ae6565b61143b565b634e487b7160e01b81526011600452602490fd5b505050909192935061143b565b60405162461bcd60e51b8152602060048201526024808201527f4552433732313a207472616e7366657220746f20746865207a65726f206164646044820152637265737360e01b6064820152608490fd5b91929091803b1561170b57611647936040519081630a85bd0160e11b9384825233600483015260009687602484015260448301526080606483015281878160209a8b966084830190610fba565b03926001600160a01b03165af18491816116cb575b506116ba575050503d6000146116b2573d6116768161107f565b90611684604051928361105d565b81528091833d92013e5b805191826116af5760405162461bcd60e51b815280611339600482016112c6565b01fd5b50606061168e565b6001600160e01b0319161492509050565b9091508581813d8311611704575b6116e3818361105d565b8101031261056457516001600160e01b03198116810361056457903861165c565b503d6116d9565b50915050600190565b92939190803b1561179157611766946040518092630a85bd0160e11b9485835233600484015260018060a01b03809816602484015260448301526080606483015281806020998a956084830190610fba565b03916000988991165af18491816116cb57506116ba575050503d6000146116b2573d6116768161107f565b5050915050600190565b6000818152600260205260409020546117be906001600160a01b0316151561117d565b60009081526020906006825260408120916040518093839080546117e1816111ec565b80855291600191808316908115611857575060011461181a575b50505061180a9250038361105d565b6040516118168161102b565b5290565b86528486209492508591905b81831061183f57505061180a93508201013880806117fb565b85548884018501529485019487945091830191611826565b9250505061180a94925060ff191682840152151560051b8201013880806117fb565b1561188057565b60405162461bcd60e51b815260206004820152601c60248201527f4552433732313a20746f6b656e20616c7265616479206d696e746564000000006044820152606490fd5b8181106118d0575050565b600081556001016118c5565b6000818152600260205260409020549192916001600160a01b031615611a655760009080825260209160068352604081209085519067ffffffffffffffff8211611a515761192a83546111ec565b601f8111611a18575b508490601f831160011461199457907ff8e1a15aba9398e019f0b49df1a4fde98ee17ae345cb5f6b5e2c27f5033e8ce7969783611989575b50508160011b916000199060031b1c19161790555b604051908152a1565b01519050388061196b565b9196601f198816848452868420935b818110611a0157509160019391897ff8e1a15aba9398e019f0b49df1a4fde98ee17ae345cb5f6b5e2c27f5033e8ce7999a94106119e8575b505050811b019055611980565b015160001960f88460031b161c191690553880806119db565b9293876001819287860151815501950193016119a3565b611a4190848352868320601f850160051c810191888610611a47575b601f0160051c01906118c5565b38611933565b9091508190611a34565b634e487b7160e01b81526041600452602490fd5b60405162461bcd60e51b815260206004820152602e60248201527f45524337323155524953746f726167653a2055524920736574206f66206e6f6e60448201526d32bc34b9ba32b73a103a37b5b2b760911b6064820152608490fd5b6000198114611ad05760010190565b634e487b7160e01b600052601160045260246000fd5b8054821015611afe5760005260206000200190600090565b634e487b7160e01b600052603260045260246000fd5b8054908115611b3e5760001991820191611b2e8383611ae6565b909182549160031b1b1916905555565b634e487b7160e01b600052603160045260246000fdfea264697066735822122062691b5b5b8b83deda6493bab438e07daffd136a57425ef6374575ad9a767a8564736f6c63430008140033",
          "opcodes": "PUSH1 0x80 CALLVALUE PUSH3 0x358 JUMPI PUSH1 0x1 PUSH1 0x1 PUSH1 0x40 SHL SUB SWAP1 PUSH1 0x40 DUP2 DUP2 ADD DUP4 DUP2 GT DUP4 DUP3 LT OR PUSH3 0x342 JUMPI DUP2 MSTORE PUSH1 0x9 DUP3 MSTORE PUSH1 0x20 SWAP2 PUSH9 0x5A656E6F5665727365 PUSH1 0xB8 SHL DUP4 DUP3 ADD MSTORE DUP2 MLOAD SWAP4 DUP3 DUP6 ADD DUP6 DUP2 LT DUP3 DUP3 GT OR PUSH3 0x342 JUMPI DUP4 MSTORE PUSH1 0x5 DUP6 MSTORE PUSH5 0x5A454E4F53 PUSH1 0xD8 SHL DUP5 DUP7 ADD MSTORE DUP2 MLOAD DUP2 DUP2 GT PUSH3 0x342 JUMPI PUSH1 0x0 SWAP5 DUP6 SLOAD SWAP2 PUSH1 0x1 SWAP5 DUP6 DUP5 DUP2 SHR SWAP5 AND DUP1 ISZERO PUSH3 0x337 JUMPI JUMPDEST DUP4 DUP6 LT EQ PUSH3 0x323 JUMPI DUP2 SWAP1 PUSH1 0x1F SWAP5 DUP6 DUP2 GT PUSH3 0x2D0 JUMPI JUMPDEST POP DUP4 SWAP1 DUP6 DUP4 GT PUSH1 0x1 EQ PUSH3 0x26C JUMPI DUP10 SWAP3 PUSH3 0x260 JUMPI JUMPDEST POP POP PUSH1 0x0 NOT PUSH1 0x3 DUP4 SWAP1 SHL SHR NOT AND SWAP1 DUP6 SHL OR DUP7 SSTORE JUMPDEST DUP7 MLOAD SWAP3 DUP4 GT PUSH3 0x24C JUMPI DUP4 SLOAD DUP5 DUP2 DUP2 SHR SWAP2 AND DUP1 ISZERO PUSH3 0x241 JUMPI JUMPDEST DUP3 DUP3 LT EQ PUSH3 0x22D JUMPI DUP3 DUP2 GT PUSH3 0x1E5 JUMPI JUMPDEST POP DUP1 SWAP2 DUP4 GT PUSH1 0x1 EQ PUSH3 0x17E JUMPI POP DUP5 SWAP6 DUP3 SWAP4 SWAP5 SWAP6 SWAP3 PUSH3 0x172 JUMPI JUMPDEST POP POP PUSH1 0x0 NOT PUSH1 0x3 DUP4 SWAP1 SHL SHR NOT AND SWAP1 DUP3 SHL OR SWAP1 SSTORE JUMPDEST PUSH1 0x7 DUP1 SLOAD CALLER PUSH1 0x1 PUSH1 0x1 PUSH1 0xA0 SHL SUB NOT DUP3 AND DUP2 OR SWAP1 SWAP3 SSTORE SWAP2 MLOAD SWAP3 SWAP1 SWAP2 PUSH1 0x1 PUSH1 0x1 PUSH1 0xA0 SHL SUB AND SWAP1 PUSH32 0x8BE0079C531659141344CD1FD0A4F28419497F9722A3DAAFE3B4186F6B6457E0 SWAP1 DUP1 LOG3 PUSH2 0x1B8A SWAP1 DUP2 PUSH3 0x35E DUP3 CODECOPY RETURN JUMPDEST ADD MLOAD SWAP1 POP CODESIZE DUP1 PUSH3 0x109 JUMP JUMPDEST SWAP1 PUSH1 0x1F NOT DUP4 AND SWAP7 DUP5 DUP8 MSTORE DUP3 DUP8 KECCAK256 SWAP3 DUP8 SWAP1 JUMPDEST DUP10 DUP3 LT PUSH3 0x1CD JUMPI POP POP DUP4 DUP6 SWAP7 SWAP8 SWAP9 LT PUSH3 0x1B3 JUMPI JUMPDEST POP POP POP DUP2 SHL ADD SWAP1 SSTORE PUSH3 0x11D JUMP JUMPDEST ADD MLOAD PUSH1 0x0 NOT PUSH1 0xF8 DUP5 PUSH1 0x3 SHL AND SHR NOT AND SWAP1 SSTORE CODESIZE DUP1 DUP1 PUSH3 0x1A5 JUMP JUMPDEST DUP1 DUP8 DUP6 SWAP7 DUP3 SWAP5 SWAP7 DUP7 ADD MLOAD DUP2 SSTORE ADD SWAP6 ADD SWAP4 ADD SWAP1 PUSH3 0x18F JUMP JUMPDEST DUP5 DUP8 MSTORE DUP2 DUP8 KECCAK256 DUP4 DUP1 DUP7 ADD PUSH1 0x5 SHR DUP3 ADD SWAP3 DUP5 DUP8 LT PUSH3 0x223 JUMPI JUMPDEST ADD PUSH1 0x5 SHR ADD SWAP1 DUP6 SWAP1 JUMPDEST DUP3 DUP2 LT PUSH3 0x217 JUMPI POP POP PUSH3 0xEE JUMP JUMPDEST DUP9 DUP2 SSTORE ADD DUP6 SWAP1 PUSH3 0x207 JUMP JUMPDEST SWAP3 POP DUP2 SWAP3 PUSH3 0x1FE JUMP JUMPDEST PUSH4 0x4E487B71 PUSH1 0xE0 SHL DUP8 MSTORE PUSH1 0x22 PUSH1 0x4 MSTORE PUSH1 0x24 DUP8 REVERT JUMPDEST SWAP1 PUSH1 0x7F AND SWAP1 PUSH3 0xDC JUMP JUMPDEST PUSH4 0x4E487B71 PUSH1 0xE0 SHL DUP7 MSTORE PUSH1 0x41 PUSH1 0x4 MSTORE PUSH1 0x24 DUP7 REVERT JUMPDEST ADD MLOAD SWAP1 POP CODESIZE DUP1 PUSH3 0xAE JUMP JUMPDEST DUP10 DUP1 MSTORE DUP5 DUP11 KECCAK256 DUP9 SWAP5 POP SWAP2 SWAP1 PUSH1 0x1F NOT DUP5 AND DUP12 JUMPDEST DUP8 DUP3 DUP3 LT PUSH3 0x2B9 JUMPI POP POP DUP5 GT PUSH3 0x29F JUMPI JUMPDEST POP POP POP DUP2 SHL ADD DUP7 SSTORE PUSH3 0xC2 JUMP JUMPDEST ADD MLOAD PUSH1 0x0 NOT PUSH1 0xF8 DUP5 PUSH1 0x3 SHL AND SHR NOT AND SWAP1 SSTORE CODESIZE DUP1 DUP1 PUSH3 0x291 JUMP JUMPDEST DUP4 DUP6 ADD MLOAD DUP7 SSTORE DUP12 SWAP8 SWAP1 SWAP6 ADD SWAP5 SWAP4 DUP5 ADD SWAP4 ADD PUSH3 0x27E JUMP JUMPDEST SWAP1 SWAP2 POP DUP9 DUP1 MSTORE DUP4 DUP10 KECCAK256 DUP6 DUP1 DUP6 ADD PUSH1 0x5 SHR DUP3 ADD SWAP3 DUP7 DUP7 LT PUSH3 0x319 JUMPI JUMPDEST SWAP2 DUP10 SWAP2 DUP7 SWAP6 SWAP5 SWAP4 ADD PUSH1 0x5 SHR ADD SWAP2 JUMPDEST DUP3 DUP2 LT PUSH3 0x30A JUMPI POP POP PUSH3 0x98 JUMP JUMPDEST DUP12 DUP2 SSTORE DUP6 SWAP5 POP DUP10 SWAP2 ADD PUSH3 0x2FA JUMP JUMPDEST SWAP3 POP DUP2 SWAP3 PUSH3 0x2EC JUMP JUMPDEST PUSH4 0x4E487B71 PUSH1 0xE0 SHL DUP9 MSTORE PUSH1 0x22 PUSH1 0x4 MSTORE PUSH1 0x24 DUP9 REVERT JUMPDEST SWAP4 PUSH1 0x7F AND SWAP4 PUSH3 0x81 JUMP JUMPDEST PUSH4 0x4E487B71 PUSH1 0xE0 SHL PUSH1 0x0 MSTORE PUSH1 0x41 PUSH1 0x4 MSTORE PUSH1 0x24 PUSH1 0x0 REVERT JUMPDEST PUSH1 0x0 DUP1 REVERT INVALID PUSH1 0x80 PUSH1 0x40 DUP2 DUP2 MSTORE PUSH1 0x4 DUP1 CALLDATASIZE LT ISZERO PUSH2 0x15 JUMPI PUSH1 0x0 DUP1 REVERT JUMPDEST PUSH1 0x0 SWAP3 DUP4 CALLDATALOAD PUSH1 0xE0 SHR SWAP1 DUP2 PUSH4 0x1FFC9A7 EQ PUSH2 0xF34 JUMPI POP DUP1 PUSH4 0x6FDDE03 EQ PUSH2 0xE8C JUMPI DUP1 PUSH4 0x81812FC EQ PUSH2 0xE6C JUMPI DUP1 PUSH4 0x95EA7B3 EQ PUSH2 0xCFF JUMPI DUP1 PUSH4 0x162094C4 EQ PUSH2 0xC53 JUMPI DUP1 PUSH4 0x23B872DD EQ PUSH2 0xC2E JUMPI DUP1 PUSH4 0x42842E0E EQ PUSH2 0xBFA JUMPI DUP1 PUSH4 0x42966C68 EQ PUSH2 0x99A JUMPI DUP1 PUSH4 0x6352211E EQ PUSH2 0x969 JUMPI DUP1 PUSH4 0x68A5F322 EQ PUSH2 0x767 JUMPI DUP1 PUSH4 0x70A08231 EQ PUSH2 0x6D1 JUMPI DUP1 PUSH4 0x715018A6 EQ PUSH2 0x674 JUMPI DUP1 PUSH4 0x8DA5CB5B EQ PUSH2 0x64B JUMPI DUP1 PUSH4 0x95D89B41 EQ PUSH2 0x568 JUMPI DUP1 PUSH4 0xA22CB465 EQ PUSH2 0x499 JUMPI DUP1 PUSH4 0xB6AC7270 EQ PUSH2 0x3FB JUMPI DUP1 PUSH4 0xB88D4FDE EQ PUSH2 0x36D JUMPI DUP1 PUSH4 0xC87B56DD EQ PUSH2 0x335 JUMPI DUP1 PUSH4 0xE985E9C5 EQ PUSH2 0x2E7 JUMPI DUP1 PUSH4 0xE9FDA7D4 EQ PUSH2 0x1D3 JUMPI PUSH4 0xF2FDE38B EQ PUSH2 0x10A JUMPI PUSH1 0x0 DUP1 REVERT JUMPDEST CALLVALUE PUSH2 0x1CF JUMPI PUSH1 0x20 CALLDATASIZE PUSH1 0x3 NOT ADD SLT PUSH2 0x1CF JUMPI PUSH2 0x123 PUSH2 0xFFA JUMP JUMPDEST SWAP1 PUSH2 0x12C PUSH2 0x1125 JUMP JUMPDEST PUSH1 0x1 PUSH1 0x1 PUSH1 0xA0 SHL SUB SWAP2 DUP3 AND SWAP3 DUP4 ISZERO PUSH2 0x17D JUMPI POP POP PUSH1 0x7 SLOAD DUP3 PUSH1 0x1 PUSH1 0x1 PUSH1 0x60 SHL SUB PUSH1 0xA0 SHL DUP3 AND OR PUSH1 0x7 SSTORE AND PUSH32 0x8BE0079C531659141344CD1FD0A4F28419497F9722A3DAAFE3B4186F6B6457E0 DUP4 DUP1 LOG3 DUP1 RETURN JUMPDEST SWAP1 PUSH1 0x20 PUSH1 0x84 SWAP3 MLOAD SWAP2 PUSH3 0x461BCD PUSH1 0xE5 SHL DUP4 MSTORE DUP3 ADD MSTORE PUSH1 0x26 PUSH1 0x24 DUP3 ADD MSTORE PUSH32 0x4F776E61626C653A206E6577206F776E657220697320746865207A65726F2061 PUSH1 0x44 DUP3 ADD MSTORE PUSH6 0x646472657373 PUSH1 0xD0 SHL PUSH1 0x64 DUP3 ADD MSTORE REVERT JUMPDEST DUP3 DUP1 REVERT JUMPDEST POP DUP3 CALLVALUE PUSH2 0x2E4 JUMPI PUSH1 0x20 SWAP2 DUP3 PUSH1 0x3 NOT CALLDATASIZE ADD SLT PUSH2 0x2E0 JUMPI PUSH1 0x1 PUSH1 0x1 PUSH1 0xA0 SHL SUB PUSH2 0x1F8 PUSH2 0xFFA JUMP JUMPDEST AND SWAP1 DUP2 ISZERO PUSH2 0x289 JUMPI POP DUP2 SWAP4 SWAP3 SWAP4 MSTORE PUSH1 0x9 DUP4 MSTORE DUP2 DUP2 KECCAK256 SWAP1 DUP3 MLOAD DUP1 DUP6 DUP5 SLOAD SWAP2 DUP3 DUP2 MSTORE ADD SWAP1 DUP2 SWAP5 DUP5 MSTORE DUP7 DUP5 KECCAK256 SWAP1 DUP5 JUMPDEST DUP2 DUP2 LT PUSH2 0x275 JUMPI POP POP POP DUP2 PUSH2 0x23A SWAP2 SUB DUP3 PUSH2 0x105D JUMP JUMPDEST DUP4 MLOAD SWAP5 DUP6 SWAP5 DUP2 DUP7 ADD SWAP3 DUP3 DUP8 MSTORE MLOAD DUP1 SWAP4 MSTORE DUP6 ADD SWAP4 SWAP3 JUMPDEST DUP3 DUP2 LT PUSH2 0x25E JUMPI POP POP POP POP SUB SWAP1 RETURN JUMPDEST DUP4 MLOAD DUP6 MSTORE DUP7 SWAP6 POP SWAP4 DUP2 ADD SWAP4 SWAP3 DUP2 ADD SWAP3 PUSH1 0x1 ADD PUSH2 0x24F JUMP JUMPDEST DUP3 SLOAD DUP5 MSTORE SWAP3 DUP9 ADD SWAP3 PUSH1 0x1 SWAP3 DUP4 ADD SWAP3 ADD PUSH2 0x224 JUMP JUMPDEST DUP5 MLOAD PUSH3 0x461BCD PUSH1 0xE5 SHL DUP2 MSTORE SWAP1 DUP2 ADD DUP5 SWAP1 MSTORE PUSH1 0x2B PUSH1 0x24 DUP3 ADD MSTORE PUSH32 0x5A656E6F56657273653A204F776E65722063616E6E6F7420626520746865207A PUSH1 0x44 DUP3 ADD MSTORE PUSH11 0x65726F2061646472657373 PUSH1 0xA8 SHL PUSH1 0x64 DUP3 ADD MSTORE PUSH1 0x84 SWAP1 REVERT JUMPDEST POP DUP1 REVERT JUMPDEST DUP1 REVERT JUMPDEST POP POP CALLVALUE PUSH2 0x2E0 JUMPI DUP1 PUSH1 0x3 NOT CALLDATASIZE ADD SLT PUSH2 0x2E0 JUMPI PUSH1 0xFF DUP2 PUSH1 0x20 SWAP4 PUSH2 0x307 PUSH2 0xFFA JUMP JUMPDEST PUSH2 0x30F PUSH2 0x1015 JUMP JUMPDEST PUSH1 0x1 PUSH1 0x1 PUSH1 0xA0 SHL SUB SWAP2 DUP3 AND DUP4 MSTORE PUSH1 0x5 DUP8 MSTORE DUP4 DUP4 KECCAK256 SWAP2 AND DUP3 MSTORE DUP6 MSTORE KECCAK256 SLOAD SWAP2 MLOAD SWAP2 AND ISZERO ISZERO DUP2 MSTORE RETURN JUMPDEST POP SWAP2 CALLVALUE PUSH2 0x2E4 JUMPI PUSH1 0x20 CALLDATASIZE PUSH1 0x3 NOT ADD SLT PUSH2 0x2E4 JUMPI POP PUSH2 0x356 PUSH2 0x369 SWAP3 CALLDATALOAD PUSH2 0x179B JUMP JUMPDEST SWAP1 MLOAD SWAP2 DUP3 SWAP2 PUSH1 0x20 DUP4 MSTORE PUSH1 0x20 DUP4 ADD SWAP1 PUSH2 0xFBA JUMP JUMPDEST SUB SWAP1 RETURN JUMPDEST DUP4 DUP3 CALLVALUE PUSH2 0x2E0 JUMPI PUSH1 0x80 CALLDATASIZE PUSH1 0x3 NOT ADD SLT PUSH2 0x2E0 JUMPI PUSH2 0x388 PUSH2 0xFFA JUMP JUMPDEST SWAP1 PUSH2 0x391 PUSH2 0x1015 JUMP JUMPDEST SWAP2 PUSH1 0x44 CALLDATALOAD PUSH1 0x64 CALLDATALOAD SWAP4 PUSH8 0xFFFFFFFFFFFFFFFF DUP6 GT PUSH2 0x3F7 JUMPI CALLDATASIZE PUSH1 0x23 DUP7 ADD SLT ISZERO PUSH2 0x3F7 JUMPI PUSH2 0x3CC PUSH2 0x3EF SWAP5 DUP7 PUSH1 0x24 PUSH2 0x3F4 SWAP9 CALLDATASIZE SWAP4 ADD CALLDATALOAD SWAP2 ADD PUSH2 0x109B JUMP JUMPDEST SWAP3 PUSH2 0x3DF PUSH2 0x3DA DUP5 CALLER PUSH2 0x133D JUMP JUMPDEST PUSH2 0x1264 JUMP JUMPDEST PUSH2 0x3EA DUP4 DUP4 DUP4 PUSH2 0x1405 JUMP JUMPDEST PUSH2 0x1714 JUMP JUMPDEST PUSH2 0x1319 JUMP JUMPDEST DUP1 RETURN JUMPDEST DUP6 DUP1 REVERT JUMPDEST POP DUP3 CALLVALUE PUSH2 0x2E4 JUMPI PUSH1 0x20 CALLDATASIZE PUSH1 0x3 NOT ADD SLT PUSH2 0x2E4 JUMPI POP DUP1 CALLDATALOAD PUSH1 0x0 DUP2 DUP2 MSTORE PUSH1 0x2 PUSH1 0x20 MSTORE PUSH1 0x40 SWAP1 KECCAK256 SLOAD SWAP1 SWAP2 SWAP1 PUSH1 0x1 PUSH1 0x1 PUSH1 0xA0 SHL SUB AND ISZERO PUSH2 0x43E JUMPI PUSH2 0x369 DUP4 PUSH2 0x356 DUP5 PUSH2 0x179B JUMP JUMPDEST PUSH1 0x84 SWAP1 PUSH1 0x20 DUP5 MLOAD SWAP2 PUSH3 0x461BCD PUSH1 0xE5 SHL DUP4 MSTORE DUP3 ADD MSTORE PUSH1 0x2F PUSH1 0x24 DUP3 ADD MSTORE PUSH32 0x5A656E6F56657273653A204D6574616461746120717565727920666F72206E6F PUSH1 0x44 DUP3 ADD MSTORE PUSH15 0x3732BC34B9BA32B73A103A37B5B2B7 PUSH1 0x89 SHL PUSH1 0x64 DUP3 ADD MSTORE REVERT JUMPDEST POP SWAP1 CALLVALUE PUSH2 0x1CF JUMPI DUP1 PUSH1 0x3 NOT CALLDATASIZE ADD SLT PUSH2 0x1CF JUMPI PUSH2 0x4B3 PUSH2 0xFFA JUMP JUMPDEST SWAP1 PUSH1 0x24 CALLDATALOAD SWAP2 DUP3 ISZERO ISZERO DUP1 SWAP4 SUB PUSH2 0x564 JUMPI PUSH1 0x1 PUSH1 0x1 PUSH1 0xA0 SHL SUB AND SWAP3 CALLER DUP5 EQ PUSH2 0x522 JUMPI POP CALLER DUP5 MSTORE PUSH1 0x5 PUSH1 0x20 MSTORE DUP1 DUP5 KECCAK256 DUP4 DUP6 MSTORE PUSH1 0x20 MSTORE DUP1 DUP5 KECCAK256 PUSH1 0xFF NOT DUP2 SLOAD AND PUSH1 0xFF DUP5 AND OR SWAP1 SSTORE MLOAD SWAP1 DUP2 MSTORE PUSH32 0x17307EAB39AB6107E8899845AD3D59BD9653F200F220920489CA2B5937696C31 PUSH1 0x20 CALLER SWAP3 LOG3 DUP1 RETURN JUMPDEST PUSH1 0x20 PUSH1 0x64 SWAP3 MLOAD SWAP2 PUSH3 0x461BCD PUSH1 0xE5 SHL DUP4 MSTORE DUP3 ADD MSTORE PUSH1 0x19 PUSH1 0x24 DUP3 ADD MSTORE PUSH32 0x4552433732313A20617070726F766520746F2063616C6C657200000000000000 PUSH1 0x44 DUP3 ADD MSTORE REVERT JUMPDEST DUP5 DUP1 REVERT JUMPDEST POP POP CALLVALUE PUSH2 0x2E0 JUMPI DUP2 PUSH1 0x3 NOT CALLDATASIZE ADD SLT PUSH2 0x2E0 JUMPI DUP1 MLOAD SWAP1 DUP3 PUSH1 0x1 DUP1 SLOAD SWAP2 PUSH2 0x58C DUP4 PUSH2 0x11EC JUMP JUMPDEST DUP1 DUP7 MSTORE SWAP3 DUP3 DUP2 AND SWAP1 DUP2 ISZERO PUSH2 0x623 JUMPI POP PUSH1 0x1 EQ PUSH2 0x5C7 JUMPI JUMPDEST POP POP POP PUSH2 0x5B5 DUP3 PUSH2 0x369 SWAP5 SUB DUP4 PUSH2 0x105D JUMP JUMPDEST MLOAD SWAP2 DUP3 SWAP2 PUSH1 0x20 DUP4 MSTORE PUSH1 0x20 DUP4 ADD SWAP1 PUSH2 0xFBA JUMP JUMPDEST SWAP5 POP DUP1 DUP6 MSTORE PUSH32 0xB10E2D527612073B26EECDFD717E6A320CF44B4AFAC2B0732D9FCBE2B7FA0CF6 JUMPDEST DUP3 DUP7 LT PUSH2 0x60B JUMPI POP POP POP PUSH2 0x5B5 DUP3 PUSH1 0x20 PUSH2 0x369 SWAP6 DUP3 ADD ADD SWAP5 PUSH2 0x5A3 JUMP JUMPDEST DUP1 SLOAD PUSH1 0x20 DUP8 DUP8 ADD DUP2 ADD SWAP2 SWAP1 SWAP2 MSTORE SWAP1 SWAP6 ADD SWAP5 DUP2 ADD PUSH2 0x5EE JUMP JUMPDEST PUSH2 0x369 SWAP8 POP DUP7 SWAP4 POP PUSH1 0x20 SWAP3 POP PUSH2 0x5B5 SWAP5 SWAP2 POP PUSH1 0xFF NOT AND DUP3 DUP5 ADD MSTORE ISZERO ISZERO PUSH1 0x5 SHL DUP3 ADD ADD SWAP5 PUSH2 0x5A3 JUMP JUMPDEST POP POP CALLVALUE PUSH2 0x2E0 JUMPI DUP2 PUSH1 0x3 NOT CALLDATASIZE ADD SLT PUSH2 0x2E0 JUMPI PUSH1 0x7 SLOAD SWAP1 MLOAD PUSH1 0x1 PUSH1 0x1 PUSH1 0xA0 SHL SUB SWAP1 SWAP2 AND DUP2 MSTORE PUSH1 0x20 SWAP1 RETURN JUMPDEST DUP4 CALLVALUE PUSH2 0x2E4 JUMPI DUP1 PUSH1 0x3 NOT CALLDATASIZE ADD SLT PUSH2 0x2E4 JUMPI PUSH2 0x68D PUSH2 0x1125 JUMP JUMPDEST PUSH1 0x7 DUP1 SLOAD PUSH1 0x1 PUSH1 0x1 PUSH1 0xA0 SHL SUB NOT DUP2 AND SWAP1 SWAP2 SSTORE DUP2 SWAP1 PUSH1 0x1 PUSH1 0x1 PUSH1 0xA0 SHL SUB AND PUSH32 0x8BE0079C531659141344CD1FD0A4F28419497F9722A3DAAFE3B4186F6B6457E0 DUP3 DUP1 LOG3 DUP1 RETURN JUMPDEST POP DUP3 SWAP1 CALLVALUE PUSH2 0x2E0 JUMPI PUSH1 0x20 CALLDATASIZE PUSH1 0x3 NOT ADD SLT PUSH2 0x2E0 JUMPI PUSH1 0x1 PUSH1 0x1 PUSH1 0xA0 SHL SUB PUSH2 0x6F5 PUSH2 0xFFA JUMP JUMPDEST AND SWAP1 DUP2 ISZERO PUSH2 0x712 JUMPI PUSH1 0x20 DUP5 DUP1 DUP6 DUP6 DUP2 MSTORE PUSH1 0x3 DUP5 MSTORE KECCAK256 SLOAD SWAP1 MLOAD SWAP1 DUP2 MSTORE RETURN JUMPDEST PUSH1 0x84 SWAP1 PUSH1 0x20 DUP6 MLOAD SWAP2 PUSH3 0x461BCD PUSH1 0xE5 SHL DUP4 MSTORE DUP3 ADD MSTORE PUSH1 0x29 PUSH1 0x24 DUP3 ADD MSTORE PUSH32 0x4552433732313A2061646472657373207A65726F206973206E6F742061207661 PUSH1 0x44 DUP3 ADD MSTORE PUSH9 0x3634B21037BBB732B9 PUSH1 0xB9 SHL PUSH1 0x64 DUP3 ADD MSTORE REVERT JUMPDEST POP SWAP2 SWAP1 CALLVALUE PUSH2 0x2E0 JUMPI DUP1 PUSH1 0x3 NOT CALLDATASIZE ADD SLT PUSH2 0x2E0 JUMPI PUSH2 0x782 PUSH2 0xFFA JUMP JUMPDEST SWAP2 PUSH1 0x24 CALLDATALOAD PUSH8 0xFFFFFFFFFFFFFFFF DUP2 GT PUSH2 0x2E0 JUMPI PUSH2 0x7A2 SWAP1 CALLDATASIZE SWAP1 DUP7 ADD PUSH2 0x10D2 JUMP JUMPDEST PUSH2 0x7AA PUSH2 0x1125 JUMP JUMPDEST PUSH1 0x1 PUSH1 0x8 SLOAD ADD SWAP4 DUP5 PUSH1 0x8 SSTORE DUP4 MLOAD SWAP1 PUSH2 0x7C1 DUP3 PUSH2 0x102B JUMP JUMPDEST DUP4 DUP3 MSTORE PUSH1 0x1 PUSH1 0x1 PUSH1 0xA0 SHL SUB DUP2 AND SWAP4 DUP5 ISZERO PUSH2 0x926 JUMPI PUSH1 0x0 DUP8 DUP2 MSTORE PUSH1 0x2 PUSH1 0x20 MSTORE PUSH1 0x40 SWAP1 KECCAK256 SLOAD PUSH2 0x7FA SWAP1 PUSH1 0x1 PUSH1 0x1 PUSH1 0xA0 SHL SUB AND ISZERO ISZERO JUMPDEST ISZERO PUSH2 0x1879 JUMP JUMPDEST DUP5 DUP2 MSTORE PUSH1 0x20 SWAP8 PUSH1 0x9 DUP10 MSTORE DUP7 DUP3 KECCAK256 DUP1 SLOAD SWAP2 PUSH1 0x1 PUSH1 0x40 SHL DUP4 LT ISZERO PUSH2 0x913 JUMPI POP PUSH32 0x450303C49C929E2B5D30CC374BC9ECF1893407C820081737F60BA34CE096F6DB SWAP5 DUP10 PUSH2 0x90A SWAP6 DUP2 DUP11 DUP2 SWAP12 SWAP11 SWAP8 DUP16 PUSH1 0x2 SWAP1 DUP16 PUSH2 0x87C DUP7 PUSH2 0x863 DUP14 PUSH2 0x3EF SWAP14 PUSH2 0x8EF SWAP16 PUSH1 0x1 ADD DUP2 SSTORE PUSH2 0x1AE6 JUMP JUMPDEST SWAP1 SWAP2 SWAP1 DUP3 SLOAD SWAP1 PUSH1 0x3 SHL SWAP2 DUP3 SHL SWAP2 PUSH1 0x0 NOT SWAP1 SHL NOT AND OR SWAP1 SSTORE JUMP JUMPDEST PUSH1 0x0 DUP7 DUP2 MSTORE PUSH1 0x2 PUSH1 0x20 MSTORE PUSH1 0x40 SWAP1 KECCAK256 SLOAD PUSH2 0x89F SWAP1 PUSH1 0x1 PUSH1 0x1 PUSH1 0xA0 SHL SUB AND ISZERO ISZERO PUSH2 0x7F4 JUMP JUMPDEST DUP5 DUP5 MSTORE PUSH1 0x3 DUP3 MSTORE DUP4 KECCAK256 DUP1 SLOAD PUSH1 0x1 ADD SWAP1 SSTORE DUP5 DUP4 MSTORE MSTORE DUP14 DUP2 KECCAK256 DUP1 SLOAD PUSH1 0x1 PUSH1 0x1 PUSH1 0xA0 SHL SUB NOT AND DUP4 OR SWAP1 SSTORE PUSH32 0xDDF252AD1BE2C89B69C2B068FC378DAA952BA7F163C4A11628F55A4DF523B3EF DUP2 DUP1 LOG4 PUSH2 0x15FA JUMP JUMPDEST PUSH2 0x8F9 DUP2 DUP7 PUSH2 0x18DC JUMP JUMPDEST DUP6 MLOAD SWAP2 DUP3 SWAP2 DUP10 DUP4 MSTORE DUP10 DUP4 ADD SWAP1 PUSH2 0xFBA JUMP JUMPDEST SUB SWAP1 LOG3 MLOAD SWAP1 DUP2 MSTORE RETURN JUMPDEST PUSH4 0x4E487B71 PUSH1 0xE0 SHL DUP5 MSTORE PUSH1 0x41 SWAP1 MSTORE PUSH1 0x24 DUP4 REVERT JUMPDEST DUP6 MLOAD PUSH3 0x461BCD PUSH1 0xE5 SHL DUP2 MSTORE PUSH1 0x20 DUP2 DUP11 ADD DUP2 SWAP1 MSTORE PUSH1 0x24 DUP3 ADD MSTORE PUSH32 0x4552433732313A206D696E7420746F20746865207A65726F2061646472657373 PUSH1 0x44 DUP3 ADD MSTORE PUSH1 0x64 SWAP1 REVERT JUMPDEST POP SWAP2 CALLVALUE PUSH2 0x2E4 JUMPI PUSH1 0x20 CALLDATASIZE PUSH1 0x3 NOT ADD SLT PUSH2 0x2E4 JUMPI POP PUSH2 0x989 PUSH1 0x20 SWAP3 CALLDATALOAD PUSH2 0x11C9 JUMP JUMPDEST SWAP1 MLOAD PUSH1 0x1 PUSH1 0x1 PUSH1 0xA0 SHL SUB SWAP1 SWAP2 AND DUP2 MSTORE RETURN JUMPDEST POP SWAP2 SWAP1 CALLVALUE PUSH2 0x2E0 JUMPI PUSH1 0x20 SWAP2 DUP3 PUSH1 0x3 NOT CALLDATASIZE ADD SLT PUSH2 0x2E4 JUMPI DUP4 CALLDATALOAD PUSH2 0x9BA PUSH2 0x1125 JUMP JUMPDEST PUSH2 0x9C3 DUP2 PUSH2 0x11C9 JUMP JUMPDEST PUSH1 0x1 PUSH1 0x1 PUSH1 0xA0 SHL SUB SWAP4 DUP5 PUSH2 0x9D6 DUP5 PUSH2 0x11C9 JUMP JUMPDEST AND DUP1 PUSH2 0xB5F JUMPI JUMPDEST POP SWAP1 SWAP2 SWAP3 SWAP4 SWAP5 PUSH1 0x9 SWAP1 PUSH2 0x9EF DUP6 PUSH2 0x11C9 JUMP JUMPDEST SWAP7 DUP6 DUP8 MSTORE DUP9 DUP3 MSTORE DUP1 DUP5 DUP9 KECCAK256 SWAP9 PUSH1 0x1 PUSH1 0x1 PUSH1 0x60 SHL SUB PUSH1 0xA0 SHL SWAP10 DUP11 DUP2 SLOAD AND SWAP1 SSTORE AND SWAP5 DUP6 DUP9 MSTORE DUP7 DUP9 PUSH1 0x3 SWAP8 DUP9 DUP7 MSTORE DUP8 DUP3 KECCAK256 SWAP12 PUSH1 0x0 NOT SWAP13 DUP14 DUP2 SLOAD ADD SWAP1 SSTORE DUP4 DUP4 MSTORE PUSH1 0x2 DUP8 MSTORE DUP9 DUP4 KECCAK256 SWAP1 DUP2 SLOAD AND SWAP1 SSTORE PUSH32 0xDDF252AD1BE2C89B69C2B068FC378DAA952BA7F163C4A11628F55A4DF523B3EF DUP3 DUP1 LOG4 PUSH1 0x6 DUP4 MSTORE PUSH2 0xA6C DUP6 DUP10 KECCAK256 SLOAD PUSH2 0x11EC JUMP JUMPDEST PUSH2 0xB00 JUMPI JUMPDEST AND DUP7 MSTORE MSTORE DUP4 KECCAK256 SWAP2 DUP4 JUMPDEST DUP4 SLOAD DUP1 DUP3 LT ISZERO PUSH2 0xAF5 JUMPI DUP3 PUSH2 0xA8F DUP4 DUP8 PUSH2 0x1AE6 JUMP JUMPDEST SWAP1 SLOAD SWAP1 DUP7 SHL SHR EQ PUSH2 0xAA9 JUMPI POP PUSH2 0xAA4 SWAP1 PUSH2 0x1AC1 JUMP JUMPDEST PUSH2 0xA7A JUMP JUMPDEST DUP1 SWAP3 POP SWAP6 SWAP1 SWAP4 SWAP5 SWAP6 ADD SWAP1 DUP2 GT PUSH2 0xAE2 JUMPI PUSH2 0x3F4 SWAP5 SWAP6 POP PUSH2 0xADD SWAP3 SWAP2 PUSH2 0xAD1 PUSH2 0x863 SWAP3 DUP7 PUSH2 0x1AE6 JUMP JUMPDEST SWAP1 SLOAD SWAP2 SHL SHR SWAP2 DUP5 PUSH2 0x1AE6 JUMP JUMPDEST PUSH2 0x1B14 JUMP JUMPDEST PUSH4 0x4E487B71 PUSH1 0xE0 SHL DUP6 MSTORE PUSH1 0x11 DUP7 MSTORE PUSH1 0x24 DUP6 REVERT JUMPDEST POP POP POP POP POP SWAP2 POP POP DUP1 RETURN JUMPDEST DUP7 DUP9 MSTORE PUSH1 0x6 DUP4 MSTORE DUP8 DUP6 DUP2 KECCAK256 PUSH2 0xB15 DUP2 SLOAD PUSH2 0x11EC JUMP JUMPDEST DUP1 PUSH2 0xB23 JUMPI JUMPDEST POP POP POP PUSH2 0xA71 JUMP JUMPDEST DUP3 PUSH1 0x1F DUP3 GT PUSH1 0x1 EQ PUSH2 0xB3B JUMPI POP POP SSTORE JUMPDEST DUP8 CODESIZE DUP1 PUSH2 0xB1B JUMP JUMPDEST SWAP1 SWAP2 DUP1 DUP3 MSTORE PUSH2 0xB58 PUSH1 0x1F DUP9 DUP5 KECCAK256 SWAP5 ADD PUSH1 0x5 SHR DUP5 ADD PUSH1 0x1 DUP6 ADD PUSH2 0x18C5 JUMP JUMPDEST SSTORE SSTORE PUSH2 0xB33 JUMP JUMPDEST DUP5 MSTORE PUSH1 0x9 DUP7 MSTORE DUP1 DUP5 KECCAK256 SWAP6 DUP5 JUMPDEST DUP8 SLOAD DUP1 DUP3 LT ISZERO PUSH2 0xBEA JUMPI DUP6 SWAP1 PUSH2 0xB81 DUP4 DUP12 PUSH2 0x1AE6 JUMP JUMPDEST SWAP3 SWAP1 SLOAD PUSH1 0x3 SWAP4 DUP5 SHL SHR EQ PUSH2 0xB9F JUMPI POP POP PUSH2 0xB9A SWAP1 PUSH2 0x1AC1 JUMP JUMPDEST PUSH2 0xB6B JUMP JUMPDEST PUSH1 0x0 SWAP10 SWAP4 SWAP5 SWAP6 SWAP7 SWAP8 SWAP9 SWAP10 NOT DUP2 ADD SWAP1 DUP2 GT PUSH2 0xBD7 JUMPI PUSH2 0xBCC SWAP3 PUSH2 0x863 DUP6 SWAP4 PUSH2 0xAD1 PUSH2 0xADD SWAP5 PUSH1 0x9 SWAP10 SWAP9 PUSH2 0x1AE6 JUMP JUMPDEST SWAP6 SWAP5 SWAP4 SWAP3 SWAP2 SWAP1 PUSH2 0x9DD JUMP JUMPDEST PUSH4 0x4E487B71 PUSH1 0xE0 SHL DUP10 MSTORE PUSH1 0x11 DUP12 MSTORE PUSH1 0x24 DUP10 REVERT JUMPDEST POP POP PUSH1 0x9 SWAP2 SWAP3 SWAP4 SWAP5 SWAP6 SWAP7 POP PUSH2 0xBCC JUMP JUMPDEST POP POP CALLVALUE PUSH2 0x2E0 JUMPI PUSH2 0x3EF PUSH2 0x3F4 SWAP2 PUSH2 0xC11 CALLDATASIZE PUSH2 0x10F0 JUMP JUMPDEST SWAP2 SWAP3 MLOAD SWAP3 PUSH2 0xC1E DUP5 PUSH2 0x102B JUMP JUMPDEST DUP7 DUP5 MSTORE PUSH2 0x3DF PUSH2 0x3DA DUP5 CALLER PUSH2 0x133D JUMP JUMPDEST DUP4 CALLVALUE PUSH2 0x2E4 JUMPI PUSH2 0x3F4 PUSH2 0xC40 CALLDATASIZE PUSH2 0x10F0 JUMP JUMPDEST SWAP2 PUSH2 0xC4E PUSH2 0x3DA DUP5 CALLER PUSH2 0x133D JUMP JUMPDEST PUSH2 0x1405 JUMP JUMPDEST POP DUP3 SWAP1 CALLVALUE PUSH2 0x2E0 JUMPI DUP3 PUSH1 0x3 NOT CALLDATASIZE ADD SLT PUSH2 0x2E0 JUMPI DUP1 CALLDATALOAD PUSH1 0x24 CALLDATALOAD PUSH8 0xFFFFFFFFFFFFFFFF DUP2 GT PUSH2 0xCFB JUMPI PUSH2 0xC87 SWAP1 CALLDATASIZE SWAP1 DUP5 ADD PUSH2 0x10D2 JUMP JUMPDEST SWAP2 PUSH2 0xC90 PUSH2 0x1125 JUMP JUMPDEST PUSH1 0x0 DUP3 DUP2 MSTORE PUSH1 0x2 PUSH1 0x20 MSTORE PUSH1 0x40 SWAP1 KECCAK256 SLOAD PUSH1 0x1 PUSH1 0x1 PUSH1 0xA0 SHL SUB AND ISZERO PUSH2 0xCB8 JUMPI POP SWAP1 PUSH2 0x3F4 SWAP2 PUSH2 0x18DC JUMP JUMPDEST PUSH1 0x64 SWAP1 PUSH1 0x20 DUP7 MLOAD SWAP2 PUSH3 0x461BCD PUSH1 0xE5 SHL DUP4 MSTORE DUP3 ADD MSTORE PUSH1 0x1F PUSH1 0x24 DUP3 ADD MSTORE PUSH32 0x5A656E6F56657273653A20546F6B656E20646F6573206E6F7420657869737400 PUSH1 0x44 DUP3 ADD MSTORE REVERT JUMPDEST DUP4 DUP1 REVERT JUMPDEST POP CALLVALUE PUSH2 0x1CF JUMPI DUP2 PUSH1 0x3 NOT CALLDATASIZE ADD SLT PUSH2 0x1CF JUMPI PUSH2 0xD18 PUSH2 0xFFA JUMP JUMPDEST PUSH1 0x24 CALLDATALOAD SWAP3 SWAP1 SWAP2 PUSH1 0x1 PUSH1 0x1 PUSH1 0xA0 SHL SUB SWAP2 SWAP1 DUP3 DUP1 PUSH2 0xD33 DUP8 PUSH2 0x11C9 JUMP JUMPDEST AND SWAP5 AND SWAP4 DUP1 DUP6 EQ PUSH2 0xE1F JUMPI DUP1 CALLER EQ SWAP1 DUP2 ISZERO PUSH2 0xE00 JUMPI JUMPDEST POP ISZERO PUSH2 0xD98 JUMPI DUP5 DUP7 MSTORE PUSH1 0x20 MSTORE DUP5 KECCAK256 DUP1 SLOAD PUSH1 0x1 PUSH1 0x1 PUSH1 0xA0 SHL SUB NOT AND DUP4 OR SWAP1 SSTORE PUSH2 0xD70 DUP4 PUSH2 0x11C9 JUMP JUMPDEST AND PUSH32 0x8C5BE1E5EBEC7D5BD14F71427D1E84F3DD0314C0F7B2291E5B200AC8C7C3B925 DUP5 DUP1 LOG4 DUP1 RETURN JUMPDEST PUSH1 0x20 PUSH1 0x84 SWAP3 MLOAD SWAP2 PUSH3 0x461BCD PUSH1 0xE5 SHL DUP4 MSTORE DUP3 ADD MSTORE PUSH1 0x3D PUSH1 0x24 DUP3 ADD MSTORE PUSH32 0x4552433732313A20617070726F76652063616C6C6572206973206E6F7420746F PUSH1 0x44 DUP3 ADD MSTORE PUSH32 0x6B656E206F776E6572206F7220617070726F76656420666F7220616C6C000000 PUSH1 0x64 DUP3 ADD MSTORE REVERT JUMPDEST SWAP1 POP DUP7 MSTORE PUSH1 0x5 PUSH1 0x20 MSTORE DUP2 DUP7 KECCAK256 CALLER DUP8 MSTORE PUSH1 0x20 MSTORE PUSH1 0xFF DUP3 DUP8 KECCAK256 SLOAD AND CODESIZE PUSH2 0xD49 JUMP JUMPDEST POP PUSH1 0x20 PUSH1 0x84 SWAP3 MLOAD SWAP2 PUSH3 0x461BCD PUSH1 0xE5 SHL DUP4 MSTORE DUP3 ADD MSTORE PUSH1 0x21 PUSH1 0x24 DUP3 ADD MSTORE PUSH32 0x4552433732313A20617070726F76616C20746F2063757272656E74206F776E65 PUSH1 0x44 DUP3 ADD MSTORE PUSH1 0x39 PUSH1 0xF9 SHL PUSH1 0x64 DUP3 ADD MSTORE REVERT JUMPDEST POP SWAP2 CALLVALUE PUSH2 0x2E4 JUMPI PUSH1 0x20 CALLDATASIZE PUSH1 0x3 NOT ADD SLT PUSH2 0x2E4 JUMPI POP PUSH2 0x989 PUSH1 0x20 SWAP3 CALLDATALOAD PUSH2 0x1226 JUMP JUMPDEST POP POP CALLVALUE PUSH2 0x2E0 JUMPI DUP2 PUSH1 0x3 NOT CALLDATASIZE ADD SLT PUSH2 0x2E0 JUMPI DUP1 MLOAD SWAP1 DUP3 DUP1 SLOAD PUSH2 0xEAD DUP2 PUSH2 0x11EC JUMP JUMPDEST DUP1 DUP6 MSTORE SWAP2 PUSH1 0x1 SWAP2 DUP1 DUP4 AND SWAP1 DUP2 ISZERO PUSH2 0x623 JUMPI POP PUSH1 0x1 EQ PUSH2 0xED8 JUMPI POP POP POP PUSH2 0x5B5 DUP3 PUSH2 0x369 SWAP5 SUB DUP4 PUSH2 0x105D JUMP JUMPDEST DUP1 DUP1 SWAP7 POP MSTORE PUSH32 0x290DECD9548B62A8D60345A988386FC84BA6BC95484008F6362F93160EF3E563 JUMPDEST DUP3 DUP7 LT PUSH2 0xF1C JUMPI POP POP POP PUSH2 0x5B5 DUP3 PUSH1 0x20 PUSH2 0x369 SWAP6 DUP3 ADD ADD SWAP5 PUSH2 0x5A3 JUMP JUMPDEST DUP1 SLOAD PUSH1 0x20 DUP8 DUP8 ADD DUP2 ADD SWAP2 SWAP1 SWAP2 MSTORE SWAP1 SWAP6 ADD SWAP5 DUP2 ADD PUSH2 0xEFF JUMP JUMPDEST SWAP3 POP POP CALLVALUE PUSH2 0x1CF JUMPI PUSH1 0x20 CALLDATASIZE PUSH1 0x3 NOT ADD SLT PUSH2 0x1CF JUMPI CALLDATALOAD PUSH4 0xFFFFFFFF PUSH1 0xE0 SHL DUP2 AND DUP1 SWAP2 SUB PUSH2 0x1CF JUMPI PUSH1 0x20 SWAP3 POP PUSH4 0x24832483 PUSH1 0xE1 SHL DUP2 EQ SWAP1 DUP2 ISZERO PUSH2 0xF77 JUMPI JUMPDEST POP ISZERO ISZERO DUP2 MSTORE RETURN JUMPDEST PUSH4 0x80AC58CD PUSH1 0xE0 SHL DUP2 EQ SWAP2 POP DUP2 ISZERO PUSH2 0xFA9 JUMPI JUMPDEST DUP2 ISZERO PUSH2 0xF98 JUMPI JUMPDEST POP CODESIZE PUSH2 0xF70 JUMP JUMPDEST PUSH4 0x1FFC9A7 PUSH1 0xE0 SHL EQ SWAP1 POP CODESIZE PUSH2 0xF91 JUMP JUMPDEST PUSH4 0x5B5E139F PUSH1 0xE0 SHL DUP2 EQ SWAP2 POP PUSH2 0xF8A JUMP JUMPDEST SWAP2 SWAP1 DUP3 MLOAD SWAP3 DUP4 DUP3 MSTORE PUSH1 0x0 JUMPDEST DUP5 DUP2 LT PUSH2 0xFE6 JUMPI POP POP DUP3 PUSH1 0x0 PUSH1 0x20 DUP1 SWAP5 SWAP6 DUP5 ADD ADD MSTORE PUSH1 0x1F DUP1 NOT SWAP2 ADD AND ADD ADD SWAP1 JUMP JUMPDEST PUSH1 0x20 DUP2 DUP4 ADD DUP2 ADD MLOAD DUP5 DUP4 ADD DUP3 ADD MSTORE ADD PUSH2 0xFC5 JUMP JUMPDEST PUSH1 0x4 CALLDATALOAD SWAP1 PUSH1 0x1 PUSH1 0x1 PUSH1 0xA0 SHL SUB DUP3 AND DUP3 SUB PUSH2 0x1010 JUMPI JUMP JUMPDEST PUSH1 0x0 DUP1 REVERT JUMPDEST PUSH1 0x24 CALLDATALOAD SWAP1 PUSH1 0x1 PUSH1 0x1 PUSH1 0xA0 SHL SUB DUP3 AND DUP3 SUB PUSH2 0x1010 JUMPI JUMP JUMPDEST PUSH1 0x20 DUP2 ADD SWAP1 DUP2 LT PUSH8 0xFFFFFFFFFFFFFFFF DUP3 GT OR PUSH2 0x1047 JUMPI PUSH1 0x40 MSTORE JUMP JUMPDEST PUSH4 0x4E487B71 PUSH1 0xE0 SHL PUSH1 0x0 MSTORE PUSH1 0x41 PUSH1 0x4 MSTORE PUSH1 0x24 PUSH1 0x0 REVERT JUMPDEST SWAP1 PUSH1 0x1F DUP1 NOT SWAP2 ADD AND DUP2 ADD SWAP1 DUP2 LT PUSH8 0xFFFFFFFFFFFFFFFF DUP3 GT OR PUSH2 0x1047 JUMPI PUSH1 0x40 MSTORE JUMP JUMPDEST PUSH8 0xFFFFFFFFFFFFFFFF DUP2 GT PUSH2 0x1047 JUMPI PUSH1 0x1F ADD PUSH1 0x1F NOT AND PUSH1 0x20 ADD SWAP1 JUMP JUMPDEST SWAP3 SWAP2 SWAP3 PUSH2 0x10A7 DUP3 PUSH2 0x107F JUMP JUMPDEST SWAP2 PUSH2 0x10B5 PUSH1 0x40 MLOAD SWAP4 DUP5 PUSH2 0x105D JUMP JUMPDEST DUP3 SWAP5 DUP2 DUP5 MSTORE DUP2 DUP4 ADD GT PUSH2 0x1010 JUMPI DUP3 DUP2 PUSH1 0x20 SWAP4 DUP5 PUSH1 0x0 SWAP7 ADD CALLDATACOPY ADD ADD MSTORE JUMP JUMPDEST SWAP1 DUP1 PUSH1 0x1F DUP4 ADD SLT ISZERO PUSH2 0x1010 JUMPI DUP2 PUSH1 0x20 PUSH2 0x10ED SWAP4 CALLDATALOAD SWAP2 ADD PUSH2 0x109B JUMP JUMPDEST SWAP1 JUMP JUMPDEST PUSH1 0x60 SWAP1 PUSH1 0x3 NOT ADD SLT PUSH2 0x1010 JUMPI PUSH1 0x1 PUSH1 0x1 PUSH1 0xA0 SHL SUB SWAP1 PUSH1 0x4 CALLDATALOAD DUP3 DUP2 AND DUP2 SUB PUSH2 0x1010 JUMPI SWAP2 PUSH1 0x24 CALLDATALOAD SWAP1 DUP2 AND DUP2 SUB PUSH2 0x1010 JUMPI SWAP1 PUSH1 0x44 CALLDATALOAD SWAP1 JUMP JUMPDEST PUSH1 0x7 SLOAD PUSH1 0x1 PUSH1 0x1 PUSH1 0xA0 SHL SUB AND CALLER SUB PUSH2 0x1139 JUMPI JUMP JUMPDEST PUSH1 0x64 PUSH1 0x40 MLOAD PUSH3 0x461BCD PUSH1 0xE5 SHL DUP2 MSTORE PUSH1 0x20 PUSH1 0x4 DUP3 ADD MSTORE PUSH1 0x20 PUSH1 0x24 DUP3 ADD MSTORE PUSH32 0x4F776E61626C653A2063616C6C6572206973206E6F7420746865206F776E6572 PUSH1 0x44 DUP3 ADD MSTORE REVERT JUMPDEST ISZERO PUSH2 0x1184 JUMPI JUMP JUMPDEST PUSH1 0x40 MLOAD PUSH3 0x461BCD PUSH1 0xE5 SHL DUP2 MSTORE PUSH1 0x20 PUSH1 0x4 DUP3 ADD MSTORE PUSH1 0x18 PUSH1 0x24 DUP3 ADD MSTORE PUSH32 0x4552433732313A20696E76616C696420746F6B656E2049440000000000000000 PUSH1 0x44 DUP3 ADD MSTORE PUSH1 0x64 SWAP1 REVERT JUMPDEST PUSH1 0x0 SWAP1 DUP2 MSTORE PUSH1 0x2 PUSH1 0x20 MSTORE PUSH1 0x40 SWAP1 KECCAK256 SLOAD PUSH1 0x1 PUSH1 0x1 PUSH1 0xA0 SHL SUB AND PUSH2 0x10ED DUP2 ISZERO ISZERO PUSH2 0x117D JUMP JUMPDEST SWAP1 PUSH1 0x1 DUP3 DUP2 SHR SWAP3 AND DUP1 ISZERO PUSH2 0x121C JUMPI JUMPDEST PUSH1 0x20 DUP4 LT EQ PUSH2 0x1206 JUMPI JUMP JUMPDEST PUSH4 0x4E487B71 PUSH1 0xE0 SHL PUSH1 0x0 MSTORE PUSH1 0x22 PUSH1 0x4 MSTORE PUSH1 0x24 PUSH1 0x0 REVERT JUMPDEST SWAP2 PUSH1 0x7F AND SWAP2 PUSH2 0x11FB JUMP JUMPDEST PUSH1 0x0 DUP2 DUP2 MSTORE PUSH1 0x2 PUSH1 0x20 MSTORE PUSH1 0x40 SWAP1 KECCAK256 SLOAD PUSH2 0x1249 SWAP1 PUSH1 0x1 PUSH1 0x1 PUSH1 0xA0 SHL SUB AND ISZERO ISZERO PUSH2 0x117D JUMP JUMPDEST PUSH1 0x0 SWAP1 DUP2 MSTORE PUSH1 0x4 PUSH1 0x20 MSTORE PUSH1 0x40 SWAP1 KECCAK256 SLOAD PUSH1 0x1 PUSH1 0x1 PUSH1 0xA0 SHL SUB AND SWAP1 JUMP JUMPDEST ISZERO PUSH2 0x126B JUMPI JUMP JUMPDEST PUSH1 0x40 MLOAD PUSH3 0x461BCD PUSH1 0xE5 SHL DUP2 MSTORE PUSH1 0x20 PUSH1 0x4 DUP3 ADD MSTORE PUSH1 0x2D PUSH1 0x24 DUP3 ADD MSTORE PUSH32 0x4552433732313A2063616C6C6572206973206E6F7420746F6B656E206F776E65 PUSH1 0x44 DUP3 ADD MSTORE PUSH13 0x1C881BDC88185C1C1C9BDD9959 PUSH1 0x9A SHL PUSH1 0x64 DUP3 ADD MSTORE PUSH1 0x84 SWAP1 REVERT JUMPDEST PUSH1 0x80 SWAP1 PUSH1 0x20 DUP2 MSTORE PUSH1 0x32 PUSH1 0x20 DUP3 ADD MSTORE PUSH32 0x4552433732313A207472616E7366657220746F206E6F6E204552433732315265 PUSH1 0x40 DUP3 ADD MSTORE PUSH18 0x31B2B4BB32B91034B6B83632B6B2B73A32B9 PUSH1 0x71 SHL PUSH1 0x60 DUP3 ADD MSTORE ADD SWAP1 JUMP JUMPDEST ISZERO PUSH2 0x1320 JUMPI JUMP JUMPDEST PUSH1 0x40 MLOAD PUSH3 0x461BCD PUSH1 0xE5 SHL DUP2 MSTORE DUP1 PUSH2 0x1339 PUSH1 0x4 DUP3 ADD PUSH2 0x12C6 JUMP JUMPDEST SUB SWAP1 REVERT JUMPDEST SWAP1 PUSH1 0x1 PUSH1 0x1 PUSH1 0xA0 SHL SUB DUP1 DUP1 PUSH2 0x1351 DUP5 PUSH2 0x11C9 JUMP JUMPDEST AND SWAP4 AND SWAP2 DUP4 DUP4 EQ SWAP4 DUP5 ISZERO PUSH2 0x1384 JUMPI JUMPDEST POP DUP4 ISZERO PUSH2 0x136E JUMPI JUMPDEST POP POP POP SWAP1 JUMP JUMPDEST PUSH2 0x137A SWAP2 SWAP3 SWAP4 POP PUSH2 0x1226 JUMP JUMPDEST AND EQ CODESIZE DUP1 DUP1 PUSH2 0x1368 JUMP JUMPDEST SWAP1 SWAP4 POP PUSH1 0x0 MSTORE PUSH1 0x5 PUSH1 0x20 MSTORE PUSH1 0x40 PUSH1 0x0 KECCAK256 DUP3 PUSH1 0x0 MSTORE PUSH1 0x20 MSTORE PUSH1 0xFF PUSH1 0x40 PUSH1 0x0 KECCAK256 SLOAD AND SWAP3 CODESIZE PUSH2 0x1360 JUMP JUMPDEST ISZERO PUSH2 0x13B2 JUMPI JUMP JUMPDEST PUSH1 0x40 MLOAD PUSH3 0x461BCD PUSH1 0xE5 SHL DUP2 MSTORE PUSH1 0x20 PUSH1 0x4 DUP3 ADD MSTORE PUSH1 0x25 PUSH1 0x24 DUP3 ADD MSTORE PUSH32 0x4552433732313A207472616E736665722066726F6D20696E636F727265637420 PUSH1 0x44 DUP3 ADD MSTORE PUSH5 0x37BBB732B9 PUSH1 0xD9 SHL PUSH1 0x64 DUP3 ADD MSTORE PUSH1 0x84 SWAP1 REVERT JUMPDEST SWAP1 PUSH2 0x142D SWAP2 PUSH2 0x1413 DUP5 PUSH2 0x11C9 JUMP JUMPDEST PUSH1 0x1 PUSH1 0x1 PUSH1 0xA0 SHL SUB SWAP4 SWAP2 DUP5 AND SWAP3 DUP5 SWAP3 SWAP1 SWAP2 DUP4 AND DUP5 EQ PUSH2 0x13AB JUMP JUMPDEST AND SWAP2 DUP3 ISZERO PUSH2 0x15A9 JUMPI DUP2 PUSH2 0x1510 JUMPI JUMPDEST PUSH1 0x0 SWAP1 DUP4 DUP3 MSTORE PUSH1 0x9 PUSH1 0x20 MSTORE PUSH1 0x40 DUP3 KECCAK256 DUP1 SLOAD SWAP1 PUSH1 0x1 PUSH1 0x40 SHL DUP3 LT ISZERO PUSH2 0x14FC JUMPI PUSH32 0xDDF252AD1BE2C89B69C2B068FC378DAA952BA7F163C4A11628F55A4DF523B3EF SWAP4 SWAP3 PUSH2 0x1494 DUP9 PUSH2 0x863 DUP6 DUP10 SWAP6 PUSH1 0x1 PUSH2 0x14A4 SWAP9 ADD DUP2 SSTORE PUSH2 0x1AE6 JUMP JUMPDEST PUSH2 0x149D DUP9 PUSH2 0x11C9 JUMP JUMPDEST AND EQ PUSH2 0x13AB JUMP JUMPDEST DUP5 DUP2 MSTORE PUSH1 0x4 PUSH1 0x20 MSTORE PUSH1 0x40 DUP2 KECCAK256 PUSH1 0x1 PUSH1 0x1 PUSH1 0x60 SHL SUB PUSH1 0xA0 SHL SWAP1 DUP2 DUP2 SLOAD AND SWAP1 SSTORE DUP4 DUP3 MSTORE PUSH1 0x3 PUSH1 0x20 MSTORE PUSH1 0x40 DUP3 KECCAK256 PUSH1 0x0 NOT DUP2 SLOAD ADD SWAP1 SSTORE DUP5 DUP3 MSTORE PUSH1 0x40 DUP3 KECCAK256 PUSH1 0x1 DUP2 SLOAD ADD SWAP1 SSTORE DUP6 DUP3 MSTORE PUSH1 0x2 PUSH1 0x20 MSTORE DUP5 PUSH1 0x40 DUP4 KECCAK256 SWAP2 DUP3 SLOAD AND OR SWAP1 SSTORE DUP1 LOG4 JUMP JUMPDEST PUSH4 0x4E487B71 PUSH1 0xE0 SHL DUP5 MSTORE PUSH1 0x41 PUSH1 0x4 MSTORE PUSH1 0x24 DUP5 REVERT JUMPDEST SWAP3 SWAP2 SWAP1 PUSH1 0x0 SWAP4 DUP2 DUP6 MSTORE PUSH1 0x9 PUSH1 0x20 MSTORE PUSH1 0x40 DUP6 KECCAK256 DUP6 JUMPDEST DUP2 SLOAD DUP1 DUP3 LT ISZERO PUSH2 0x159C JUMPI DUP7 SWAP1 PUSH2 0x153A DUP4 DUP6 PUSH2 0x1AE6 JUMP JUMPDEST SWAP3 SWAP1 SLOAD PUSH1 0x3 SWAP4 DUP5 SHL SHR EQ PUSH2 0x1558 JUMPI POP POP PUSH2 0x1553 SWAP1 PUSH2 0x1AC1 JUMP JUMPDEST PUSH2 0x1524 JUMP JUMPDEST SWAP1 SWAP2 SWAP3 SWAP4 SWAP5 SWAP6 SWAP7 SWAP8 PUSH1 0x0 NOT DUP3 ADD SWAP2 DUP3 GT PUSH2 0x1588 JUMPI POP SWAP2 PUSH2 0x863 PUSH2 0xADD SWAP3 PUSH2 0xAD1 DUP7 SWAP6 PUSH2 0x1583 SWAP8 PUSH2 0x1AE6 JUMP JUMPDEST PUSH2 0x143B JUMP JUMPDEST PUSH4 0x4E487B71 PUSH1 0xE0 SHL DUP2 MSTORE PUSH1 0x11 PUSH1 0x4 MSTORE PUSH1 0x24 SWAP1 REVERT JUMPDEST POP POP POP SWAP1 SWAP2 SWAP3 SWAP4 POP PUSH2 0x143B JUMP JUMPDEST PUSH1 0x40 MLOAD PUSH3 0x461BCD PUSH1 0xE5 SHL DUP2 MSTORE PUSH1 0x20 PUSH1 0x4 DUP3 ADD MSTORE PUSH1 0x24 DUP1 DUP3 ADD MSTORE PUSH32 0x4552433732313A207472616E7366657220746F20746865207A65726F20616464 PUSH1 0x44 DUP3 ADD MSTORE PUSH4 0x72657373 PUSH1 0xE0 SHL PUSH1 0x64 DUP3 ADD MSTORE PUSH1 0x84 SWAP1 REVERT JUMPDEST SWAP2 SWAP3 SWAP1 SWAP2 DUP1 EXTCODESIZE ISZERO PUSH2 0x170B JUMPI PUSH2 0x1647 SWAP4 PUSH1 0x40 MLOAD SWAP1 DUP2 PUSH4 0xA85BD01 PUSH1 0xE1 SHL SWAP4 DUP5 DUP3 MSTORE CALLER PUSH1 0x4 DUP4 ADD MSTORE PUSH1 0x0 SWAP7 DUP8 PUSH1 0x24 DUP5 ADD MSTORE PUSH1 0x44 DUP4 ADD MSTORE PUSH1 0x80 PUSH1 0x64 DUP4 ADD MSTORE DUP2 DUP8 DUP2 PUSH1 0x20 SWAP11 DUP12 SWAP7 PUSH1 0x84 DUP4 ADD SWAP1 PUSH2 0xFBA JUMP JUMPDEST SUB SWAP3 PUSH1 0x1 PUSH1 0x1 PUSH1 0xA0 SHL SUB AND GAS CALL DUP5 SWAP2 DUP2 PUSH2 0x16CB JUMPI JUMPDEST POP PUSH2 0x16BA JUMPI POP POP POP RETURNDATASIZE PUSH1 0x0 EQ PUSH2 0x16B2 JUMPI RETURNDATASIZE PUSH2 0x1676 DUP2 PUSH2 0x107F JUMP JUMPDEST SWAP1 PUSH2 0x1684 PUSH1 0x40 MLOAD SWAP3 DUP4 PUSH2 0x105D JUMP JUMPDEST DUP2 MSTORE DUP1 SWAP2 DUP4 RETURNDATASIZE SWAP3 ADD RETURNDATACOPY JUMPDEST DUP1 MLOAD SWAP2 DUP3 PUSH2 0x16AF JUMPI PUSH1 0x40 MLOAD PUSH3 0x461BCD PUSH1 0xE5 SHL DUP2 MSTORE DUP1 PUSH2 0x1339 PUSH1 0x4 DUP3 ADD PUSH2 0x12C6 JUMP JUMPDEST ADD REVERT JUMPDEST POP PUSH1 0x60 PUSH2 0x168E JUMP JUMPDEST PUSH1 0x1 PUSH1 0x1 PUSH1 0xE0 SHL SUB NOT AND EQ SWAP3 POP SWAP1 POP JUMP JUMPDEST SWAP1 SWAP2 POP DUP6 DUP2 DUP2 RETURNDATASIZE DUP4 GT PUSH2 0x1704 JUMPI JUMPDEST PUSH2 0x16E3 DUP2 DUP4 PUSH2 0x105D JUMP JUMPDEST DUP2 ADD SUB SLT PUSH2 0x564 JUMPI MLOAD PUSH1 0x1 PUSH1 0x1 PUSH1 0xE0 SHL SUB NOT DUP2 AND DUP2 SUB PUSH2 0x564 JUMPI SWAP1 CODESIZE PUSH2 0x165C JUMP JUMPDEST POP RETURNDATASIZE PUSH2 0x16D9 JUMP JUMPDEST POP SWAP2 POP POP PUSH1 0x1 SWAP1 JUMP JUMPDEST SWAP3 SWAP4 SWAP2 SWAP1 DUP1 EXTCODESIZE ISZERO PUSH2 0x1791 JUMPI PUSH2 0x1766 SWAP5 PUSH1 0x40 MLOAD DUP1 SWAP3 PUSH4 0xA85BD01 PUSH1 0xE1 SHL SWAP5 DUP6 DUP4 MSTORE CALLER PUSH1 0x4 DUP5 ADD MSTORE PUSH1 0x1 DUP1 PUSH1 0xA0 SHL SUB DUP1 SWAP9 AND PUSH1 0x24 DUP5 ADD MSTORE PUSH1 0x44 DUP4 ADD MSTORE PUSH1 0x80 PUSH1 0x64 DUP4 ADD MSTORE DUP2 DUP1 PUSH1 0x20 SWAP10 DUP11 SWAP6 PUSH1 0x84 DUP4 ADD SWAP1 PUSH2 0xFBA JUMP JUMPDEST SUB SWAP2 PUSH1 0x0 SWAP9 DUP10 SWAP2 AND GAS CALL DUP5 SWAP2 DUP2 PUSH2 0x16CB JUMPI POP PUSH2 0x16BA JUMPI POP POP POP RETURNDATASIZE PUSH1 0x0 EQ PUSH2 0x16B2 JUMPI RETURNDATASIZE PUSH2 0x1676 DUP2 PUSH2 0x107F JUMP JUMPDEST POP POP SWAP2 POP POP PUSH1 0x1 SWAP1 JUMP JUMPDEST PUSH1 0x0 DUP2 DUP2 MSTORE PUSH1 0x2 PUSH1 0x20 MSTORE PUSH1 0x40 SWAP1 KECCAK256 SLOAD PUSH2 0x17BE SWAP1 PUSH1 0x1 PUSH1 0x1 PUSH1 0xA0 SHL SUB AND ISZERO ISZERO PUSH2 0x117D JUMP JUMPDEST PUSH1 0x0 SWAP1 DUP2 MSTORE PUSH1 0x20 SWAP1 PUSH1 0x6 DUP3 MSTORE PUSH1 0x40 DUP2 KECCAK256 SWAP2 PUSH1 0x40 MLOAD DUP1 SWAP4 DUP4 SWAP1 DUP1 SLOAD PUSH2 0x17E1 DUP2 PUSH2 0x11EC JUMP JUMPDEST DUP1 DUP6 MSTORE SWAP2 PUSH1 0x1 SWAP2 DUP1 DUP4 AND SWAP1 DUP2 ISZERO PUSH2 0x1857 JUMPI POP PUSH1 0x1 EQ PUSH2 0x181A JUMPI JUMPDEST POP POP POP PUSH2 0x180A SWAP3 POP SUB DUP4 PUSH2 0x105D JUMP JUMPDEST PUSH1 0x40 MLOAD PUSH2 0x1816 DUP2 PUSH2 0x102B JUMP JUMPDEST MSTORE SWAP1 JUMP JUMPDEST DUP7 MSTORE DUP5 DUP7 KECCAK256 SWAP5 SWAP3 POP DUP6 SWAP2 SWAP1 JUMPDEST DUP2 DUP4 LT PUSH2 0x183F JUMPI POP POP PUSH2 0x180A SWAP4 POP DUP3 ADD ADD CODESIZE DUP1 DUP1 PUSH2 0x17FB JUMP JUMPDEST DUP6 SLOAD DUP9 DUP5 ADD DUP6 ADD MSTORE SWAP5 DUP6 ADD SWAP5 DUP8 SWAP5 POP SWAP2 DUP4 ADD SWAP2 PUSH2 0x1826 JUMP JUMPDEST SWAP3 POP POP POP PUSH2 0x180A SWAP5 SWAP3 POP PUSH1 0xFF NOT AND DUP3 DUP5 ADD MSTORE ISZERO ISZERO PUSH1 0x5 SHL DUP3 ADD ADD CODESIZE DUP1 DUP1 PUSH2 0x17FB JUMP JUMPDEST ISZERO PUSH2 0x1880 JUMPI JUMP JUMPDEST PUSH1 0x40 MLOAD PUSH3 0x461BCD PUSH1 0xE5 SHL DUP2 MSTORE PUSH1 0x20 PUSH1 0x4 DUP3 ADD MSTORE PUSH1 0x1C PUSH1 0x24 DUP3 ADD MSTORE PUSH32 0x4552433732313A20746F6B656E20616C7265616479206D696E74656400000000 PUSH1 0x44 DUP3 ADD MSTORE PUSH1 0x64 SWAP1 REVERT JUMPDEST DUP2 DUP2 LT PUSH2 0x18D0 JUMPI POP POP JUMP JUMPDEST PUSH1 0x0 DUP2 SSTORE PUSH1 0x1 ADD PUSH2 0x18C5 JUMP JUMPDEST PUSH1 0x0 DUP2 DUP2 MSTORE PUSH1 0x2 PUSH1 0x20 MSTORE PUSH1 0x40 SWAP1 KECCAK256 SLOAD SWAP2 SWAP3 SWAP2 PUSH1 0x1 PUSH1 0x1 PUSH1 0xA0 SHL SUB AND ISZERO PUSH2 0x1A65 JUMPI PUSH1 0x0 SWAP1 DUP1 DUP3 MSTORE PUSH1 0x20 SWAP2 PUSH1 0x6 DUP4 MSTORE PUSH1 0x40 DUP2 KECCAK256 SWAP1 DUP6 MLOAD SWAP1 PUSH8 0xFFFFFFFFFFFFFFFF DUP3 GT PUSH2 0x1A51 JUMPI PUSH2 0x192A DUP4 SLOAD PUSH2 0x11EC JUMP JUMPDEST PUSH1 0x1F DUP2 GT PUSH2 0x1A18 JUMPI JUMPDEST POP DUP5 SWAP1 PUSH1 0x1F DUP4 GT PUSH1 0x1 EQ PUSH2 0x1994 JUMPI SWAP1 PUSH32 0xF8E1A15ABA9398E019F0B49DF1A4FDE98EE17AE345CB5F6B5E2C27F5033E8CE7 SWAP7 SWAP8 DUP4 PUSH2 0x1989 JUMPI JUMPDEST POP POP DUP2 PUSH1 0x1 SHL SWAP2 PUSH1 0x0 NOT SWAP1 PUSH1 0x3 SHL SHR NOT AND OR SWAP1 SSTORE JUMPDEST PUSH1 0x40 MLOAD SWAP1 DUP2 MSTORE LOG1 JUMP JUMPDEST ADD MLOAD SWAP1 POP CODESIZE DUP1 PUSH2 0x196B JUMP JUMPDEST SWAP2 SWAP7 PUSH1 0x1F NOT DUP9 AND DUP5 DUP5 MSTORE DUP7 DUP5 KECCAK256 SWAP4 JUMPDEST DUP2 DUP2 LT PUSH2 0x1A01 JUMPI POP SWAP2 PUSH1 0x1 SWAP4 SWAP2 DUP10 PUSH32 0xF8E1A15ABA9398E019F0B49DF1A4FDE98EE17AE345CB5F6B5E2C27F5033E8CE7 SWAP10 SWAP11 SWAP5 LT PUSH2 0x19E8 JUMPI JUMPDEST POP POP POP DUP2 SHL ADD SWAP1 SSTORE PUSH2 0x1980 JUMP JUMPDEST ADD MLOAD PUSH1 0x0 NOT PUSH1 0xF8 DUP5 PUSH1 0x3 SHL AND SHR NOT AND SWAP1 SSTORE CODESIZE DUP1 DUP1 PUSH2 0x19DB JUMP JUMPDEST SWAP3 SWAP4 DUP8 PUSH1 0x1 DUP2 SWAP3 DUP8 DUP7 ADD MLOAD DUP2 SSTORE ADD SWAP6 ADD SWAP4 ADD PUSH2 0x19A3 JUMP JUMPDEST PUSH2 0x1A41 SWAP1 DUP5 DUP4 MSTORE DUP7 DUP4 KECCAK256 PUSH1 0x1F DUP6 ADD PUSH1 0x5 SHR DUP2 ADD SWAP2 DUP9 DUP7 LT PUSH2 0x1A47 JUMPI JUMPDEST PUSH1 0x1F ADD PUSH1 0x5 SHR ADD SWAP1 PUSH2 0x18C5 JUMP JUMPDEST CODESIZE PUSH2 0x1933 JUMP JUMPDEST SWAP1 SWAP2 POP DUP2 SWAP1 PUSH2 0x1A34 JUMP JUMPDEST PUSH4 0x4E487B71 PUSH1 0xE0 SHL DUP2 MSTORE PUSH1 0x41 PUSH1 0x4 MSTORE PUSH1 0x24 SWAP1 REVERT JUMPDEST PUSH1 0x40 MLOAD PUSH3 0x461BCD PUSH1 0xE5 SHL DUP2 MSTORE PUSH1 0x20 PUSH1 0x4 DUP3 ADD MSTORE PUSH1 0x2E PUSH1 0x24 DUP3 ADD MSTORE PUSH32 0x45524337323155524953746F726167653A2055524920736574206F66206E6F6E PUSH1 0x44 DUP3 ADD MSTORE PUSH14 0x32BC34B9BA32B73A103A37B5B2B7 PUSH1 0x91 SHL PUSH1 0x64 DUP3 ADD MSTORE PUSH1 0x84 SWAP1 REVERT JUMPDEST PUSH1 0x0 NOT DUP2 EQ PUSH2 0x1AD0 JUMPI PUSH1 0x1 ADD SWAP1 JUMP JUMPDEST PUSH4 0x4E487B71 PUSH1 0xE0 SHL PUSH1 0x0 MSTORE PUSH1 0x11 PUSH1 0x4 MSTORE PUSH1 0x24 PUSH1 0x0 REVERT JUMPDEST DUP1 SLOAD DUP3 LT ISZERO PUSH2 0x1AFE JUMPI PUSH1 0x0 MSTORE PUSH1 0x20 PUSH1 0x0 KECCAK256 ADD SWAP1 PUSH1 0x0 SWAP1 JUMP JUMPDEST PUSH4 0x4E487B71 PUSH1 0xE0 SHL PUSH1 0x0 MSTORE PUSH1 0x32 PUSH1 0x4 MSTORE PUSH1 0x24 PUSH1 0x0 REVERT JUMPDEST DUP1 SLOAD SWAP1 DUP2 ISZERO PUSH2 0x1B3E JUMPI PUSH1 0x0 NOT SWAP2 DUP3 ADD SWAP2 PUSH2 0x1B2E DUP4 DUP4 PUSH2 0x1AE6 JUMP JUMPDEST SWAP1 SWAP2 DUP3 SLOAD SWAP2 PUSH1 0x3 SHL SHL NOT AND SWAP1 SSTORE SSTORE JUMP JUMPDEST PUSH4 0x4E487B71 PUSH1 0xE0 SHL PUSH1 0x0 MSTORE PUSH1 0x31 PUSH1 0x4 MSTORE PUSH1 0x24 PUSH1 0x0 REVERT INVALID LOG2 PUSH5 0x6970667358 0x22 SLT KECCAK256 PUSH3 0x691B5B JUMPDEST DUP12 DUP4 0xDE 0xDA PUSH5 0x93BAB438E0 PUSH30 0xAFFD136A57425EF6374575AD9A767A8564736F6C63430008140033000000 "
        },
        "methodIdentifiers": {
          "approve(address,uint256)": "095ea7b3",
          "balanceOf(address)": "70a08231",
          "burn(uint256)": "42966c68",
          "getAllTokensByOwner(address)": "e9fda7d4",
          "getApproved(uint256)": "081812fc",
          "getObservationMetadata(uint256)": "b6ac7270",
          "isApprovedForAll(address,address)": "e985e9c5",
          "mintObservation(address,string)": "68a5f322",
          "name()": "06fdde03",
          "owner()": "8da5cb5b",
          "ownerOf(uint256)": "6352211e",
          "renounceOwnership()": "715018a6",
          "safeTransferFrom(address,address,uint256)": "42842e0e",
          "safeTransferFrom(address,address,uint256,bytes)": "b88d4fde",
          "setApprovalForAll(address,bool)": "a22cb465",
          "setTokenURI(uint256,string)": "162094c4",
          "supportsInterface(bytes4)": "01ffc9a7",
          "symbol()": "95d89b41",
          "tokenURI(uint256)": "c87b56dd",
          "transferFrom(address,address,uint256)": "23b872dd",
          "transferOwnership(address)": "f2fde38b"
        }
      }
    }
  }
}