{
  "_format": "hh-sol-artifact-1",
  "contractName": "ZenoVerse",
  "sourceName": "contracts/ZenoVerse.sol",
  "abi": [
    {
      "inputs": [],
      "stateMutability": "nonpayable",
      "type": "constructor"
    },
    {
      "anonymous": false,
      "inputs": [
        {
          "indexed": true,
          "internalType": "address",
          "name": "owner",
          "type": "address"
        },
        {
          "indexed": true,
          "internalType": "address",
          "name": "approved",
          "type": "address"
        },
        {
          "indexed": true,
          "internalType": "uint256",
          "name": "tokenId",
          "type": "uint256"
        }
      ],
      "name": "Approval",
      "type": "event"
    },
    {
      "anonymous": false,
      "inputs": [
        {
          "indexed": true,
          "internalType": "address",
          "name": "owner",
          "type": "address"
        },
        {
          "indexed": true,
          "internalType": "address",
          "name": "operator",
          "type": "address"
        },
        {
          "indexed": false,
          "internalType": "bool",
          "name": "approved",
          "type": "bool"
        }
      ],
      "name": "ApprovalForAll",
      "type": "event"
    },
    {
      "anonymous": false,
      "inputs": [
        {
          "indexed": false,
          "internalType": "uint256",
          "name": "_fromTokenId",
          "type": "uint256"
        },
        {
          "indexed": false,
          "internalType": "uint256",
          "name": "_toTokenId",
          "type": "uint256"
        }
      ],
      "name": "BatchMetadataUpdate",
      "type": "event"
    },
    {
      "anonymous": false,
      "inputs": [
        {
          "indexed": false,
          "internalType": "uint256",
          "name": "_tokenId",
          "type": "uint256"
        }
      ],
      "name": "MetadataUpdate",
      "type": "event"
    },
    {
      "anonymous": false,
      "inputs": [
        {
          "indexed": true,
          "internalType": "address",
          "name": "to",
          "type": "address"
        },
        {
          "indexed": true,
          "internalType": "uint256",
          "name": "tokenId",
          "type": "uint256"
        },
        {
          "indexed": false,
          "internalType": "string",
          "name": "tokenURI",
          "type": "string"
        }
      ],
      "name": "ObservationMinted",
      "type": "event"
    },
    {
      "anonymous": false,
      "inputs": [
        {
          "indexed": true,
          "internalType": "address",
          "name": "previousOwner",
          "type": "address"
        },
        {
          "indexed": true,
          "internalType": "address",
          "name": "newOwner",
          "type": "address"
        }
      ],
      "name": "OwnershipTransferred",
      "type": "event"
    },
    {
      "anonymous": false,
      "inputs": [
        {
          "indexed": true,
          "internalType": "address",
          "name": "from",
          "type": "address"
        },
        {
          "indexed": true,
          "internalType": "address",
          "name": "to",
          "type": "address"
        },
        {
          "indexed": true,
          "internalType": "uint256",
          "name": "tokenId",
          "type": "uint256"
        }
      ],
      "name": "Transfer",
      "type": "event"
    },
    {
      "inputs": [
        {
          "internalType": "address",
          "name": "to",
          "type": "address"
        },
        {
          "internalType": "uint256",
          "name": "tokenId",
          "type": "uint256"
        }
      ],
      "name": "approve",
      "outputs": [],
      "stateMutability": "nonpayable",
      "type": "function"
    },
    {
      "inputs": [
        {
          "internalType": "address",
          "name": "owner",
          "type": "address"
        }
      ],
      "name": "balanceOf",
      "outputs": [
        {
          "internalType": "uint256",
          "name": "",
          "type": "uint256"
        }
      ],
      "stateMutability": "view",
      "type": "function"
    },
    {
      "inputs": [
        {
          "internalType": "uint256",
          "name": "tokenId",
          "type": "uint256"
        }
      ],
      "name": "burn",
      "outputs": [],
      "stateMutability": "nonpayable",
      "type": "function"
    },
    {
      "inputs": [
        {
          "internalType": "address",
          "name": "owner",
          "type": "address"
        }
      ],
      "name": "getAllTokensByOwner",
      "outputs": [
        {
          "internalType": "uint256[]",
          "name": "",
          "type": "uint256[]"
        }
      ],
      "stateMutability": "view",
      "type": "function"
    },
    {
      "inputs": [
        {
          "internalType": "uint256",
          "name": "tokenId",
          "type": "uint256"
        }
      ],
      "name": "getApproved",
      "outputs": [
        {
          "internalType": "address",
          "name": "",
          "type": "address"
        }
      ],
      "stateMutability": "view",
      "type": "function"
    },
    {
      "inputs": [
        {
          "internalType": "uint256",
          "name": "tokenId",
          "type": "uint256"
        }
      ],
      "name": "getObservationMetadata",
      "outputs": [
        {
          "internalType": "string",
          "name": "",
          "type": "string"
        }
      ],
      "stateMutability": "view",
      "type": "function"
    },
    {
      "inputs": [
        {
          "internalType": "address",
          "name": "owner",
          "type": "address"
        },
        {
          "internalType": "address",
          "name": "operator",
          "type": "address"
        }
      ],
      "name": "isApprovedForAll",
      "outputs": [
        {
          "internalType": "bool",
          "name": "",
          "type": "bool"
        }
      ],
      "stateMutability": "view",
      "type": "function"
    },
    {
      "inputs": [
        {
          "internalType": "address",
          "name": "to",
          "type": "address"
        },
        {
          "internalType": "string",
          "name": "uri",
          "type": "string"
        }
      ],
      "name": "mintObservation",
      "outputs": [
        {
          "internalType": "uint256",
          "name": "",
          "type": "uint256"
        }
      ],
      "stateMutability": "nonpayable",
      "type": "function"
    },
    {
      "inputs": [],
      "name": "name",
      "outputs": [
        {
          "internalType": "string",
          "name": "",
          "type": "string"
        }
      ],
      "stateMutability": "view",
      "type": "function"
    },
    {
      "inputs": [],
      "name": "owner",
      "outputs": [
        {
          "internalType": "address",
          "name": "",
          "type": "address"
        }
      ],
      "stateMutability": "view",
      "type": "function"
    },
    {
      "inputs": [
        {
          "internalType": "uint256",
          "name": "tokenId",
          "type": "uint256"
        }
      ],
      "name": "ownerOf",
      "outputs": [
        {
          "internalType": "address",
          "name": "",
          "type": "address"
        }
      ],
      "stateMutability": "view",
      "type": "function"
    },
    {
      "inputs": [],
      "name": "renounceOwnership",
      "outputs": [],
      "stateMutability": "nonpayable",
      "type": "function"
    },
    {
      "inputs": [
        {
          "internalType": "address",
          "name": "from",
          "type": "address"
        },
        {
          "internalType": "address",
          "name": "to",
          "type": "address"
        },
        {
          "internalType": "uint256",
          "name": "tokenId",
          "type": "uint256"
        }
      ],
      "name": "safeTransferFrom",
      "outputs": [],
      "stateMutability": "nonpayable",
      "type": "function"
    },
    {
      "inputs": [
        {
          "internalType": "address",
          "name": "from",
          "type": "address"
        },
        {
          "internalType": "address",
          "name": "to",
          "type": "address"
        },
        {
          "internalType": "uint256",
          "name": "tokenId",
          "type": "uint256"
        },
        {
          "internalType": "bytes",
          "name": "data",
          "type": "bytes"
        }
      ],
      "name": "safeTransferFrom",
      "outputs": [],
      "stateMutability": "nonpayable",
      "type": "function"
    },
    {
      "inputs": [
        {
          "internalType": "address",
          "name": "operator",
          "type": "address"
        },
        {
          "internalType": "bool",
          "name": "approved",
          "type": "bool"
        }
      ],
      "name": "setApprovalForAll",
      "outputs": [],
      "stateMutability": "nonpayable",
      "type": "function"
    },
    {
      "inputs": [
        {
          "internalType": "uint256",
          "name": "tokenId",
          "type": "uint256"
        },
        {
          "internalType": "string",
          "name": "newURI",
          "type": "string"
        }
      ],
      "name": "setTokenURI",
      "outputs": [],
      "stateMutability": "nonpayable",
      "type": "function"
    },
    {
      "inputs": [
        {
          "internalType": "bytes4",
          "name": "interfaceId",
          "type": "bytes4"
        }
      ],
      "name": "supportsInterface",
      "outputs": [
        {
          "internalType": "bool",
          "name": "",
          "type": "bool"
        }
      ],
      "stateMutability": "view",
      "type": "function"
    },
    {
      "inputs": [],
      "name": "symbol",
      "outputs": [
        {
          "internalType": "string",
          "name": "",
          "type": "string"
        }
      ],
      "stateMutability": "view",
      "type": "function"
    },
    {
      "inputs": [
        {
          "internalType": "uint256",
          "name": "tokenId",
          "type": "uint256"
        }
      ],
      "name": "tokenURI",
      "outputs": [
        {
          "internalType": "string",
          "name": "",
          "type": "string"
        }
      ],
      "stateMutability": "view",
      "type": "function"
    },
    {
      "inputs": [
        {
          "internalType": "address",
          "name": "from",
          "type": "address"
        },
        {
          "internalType": "address",
          "name": "to",
          "type": "address"
        },
        {
          "internalType": "uint256",
          "name": "tokenId",
          "type": "uint256"
        }
      ],
      "name": "transferFrom",
      "outputs": [],
      "stateMutability": "nonpayable",
      "type": "function"
    },
    {
      "inputs": [
        {
          "internalType": "address",
          "name": "newOwner",
          "type": "address"
        }
      ],
      "name": "transferOwnership",
      "outputs": [],
      "stateMutability": "nonpayable",
      "type": "function"
    }
  ],
  "bytecode": "0x60803462000358576001600160401b03906040818101838111838210176200034257815260098252602091685a656e6f566572736560b81b83820152815193828501858110828211176200034257835260058552645a454e4f5360d81b84860152815181811162000342576000948554916001948584811c9416801562000337575b8385101462000323578190601f94858111620002d0575b5083908583116001146200026c57899262000260575b5050600019600383901b1c191690851b1786555b86519283116200024c5783548481811c9116801562000241575b828210146200022d57828111620001e5575b50809183116001146200017e57508495829394959262000172575b5050600019600383901b1c191690821b1790555b60078054336001600160a01b03198216811790925591519290916001600160a01b0316907f8be0079c531659141344cd1fd0a4f28419497f9722a3daafe3b4186f6b6457e09080a3611b8a90816200035e8239f35b01519050388062000109565b90601f198316968487528287209287905b898210620001cd575050838596979810620001b3575b505050811b0190556200011d565b015160001960f88460031b161c19169055388080620001a5565b8087859682949686015181550195019301906200018f565b8487528187208380860160051c82019284871062000223575b0160051c019085905b82811062000217575050620000ee565b88815501859062000207565b92508192620001fe565b634e487b7160e01b87526022600452602487fd5b90607f1690620000dc565b634e487b7160e01b86526041600452602486fd5b015190503880620000ae565b898052848a208894509190601f1984168b5b87828210620002b957505084116200029f575b505050811b018655620000c2565b015160001960f88460031b161c1916905538808062000291565b8385015186558b979095019493840193016200027e565b9091508880528389208580850160051c82019286861062000319575b918991869594930160051c01915b8281106200030a57505062000098565b8b8155859450899101620002fa565b92508192620002ec565b634e487b7160e01b88526022600452602488fd5b93607f169362000081565b634e487b7160e01b600052604160045260246000fd5b600080fdfe6080604081815260048036101561001557600080fd5b600092833560e01c90816301ffc9a714610f345750806306fdde0314610e8c578063081812fc14610e6c578063095ea7b314610cff578063162094c414610c5357806323b872dd14610c2e57806342842e0e14610bfa57806342966c681461099a5780636352211e1461096957806368a5f3221461076757806370a08231146106d1578063715018a6146106745780638da5cb5b1461064b57806395d89b4114610568578063a22cb46514610499578063b6ac7270146103fb578063b88d4fde1461036d578063c87b56dd14610335578063e985e9c5146102e7578063e9fda7d4146101d35763f2fde38b1461010a57600080fd5b346101cf5760203660031901126101cf57610123610ffa565b9061012c611125565b6001600160a01b0391821692831561017d575050600754826001600160601b0360a01b821617600755167f8be0079c531659141344cd1fd0a4f28419497f9722a3daafe3b4186f6b6457e08380a380f35b906020608492519162461bcd60e51b8352820152602660248201527f4f776e61626c653a206e6577206f776e657220697320746865207a65726f206160448201526564647265737360d01b6064820152fd5b8280fd5b5082346102e457602091826003193601126102e0576001600160a01b036101f8610ffa565b169081156102895750819392935260098352818120908251808584549182815201908194845286842090845b818110610275575050508161023a91038261105d565b83519485948186019282875251809352850193925b82811061025e57505050500390f35b83518552869550938101939281019260010161024f565b825484529288019260019283019201610224565b845162461bcd60e51b8152908101849052602b60248201527f5a656e6f56657273653a204f776e65722063616e6e6f7420626520746865207a60448201526a65726f206164647265737360a81b6064820152608490fd5b5080fd5b80fd5b5050346102e057806003193601126102e05760ff81602093610307610ffa565b61030f611015565b6001600160a01b0391821683526005875283832091168252855220549151911615158152f35b5091346102e45760203660031901126102e45750610356610369923561179b565b9051918291602083526020830190610fba565b0390f35b8382346102e05760803660031901126102e057610388610ffa565b90610391611015565b916044356064359367ffffffffffffffff85116103f757366023860112156103f7576103cc6103ef948660246103f49836930135910161109b565b926103df6103da843361133d565b611264565b6103ea838383611405565b611714565b611319565b80f35b8580fd5b5082346102e45760203660031901126102e4575080356000818152600260205260409020549091906001600160a01b03161561043e57610369836103568461179b565b608490602084519162461bcd60e51b8352820152602f60248201527f5a656e6f56657273653a204d6574616461746120717565727920666f72206e6f60448201526e3732bc34b9ba32b73a103a37b5b2b760891b6064820152fd5b5090346101cf57806003193601126101cf576104b3610ffa565b9060243591821515809303610564576001600160a01b0316923384146105225750338452600560205280842083855260205280842060ff1981541660ff8416179055519081527f17307eab39ab6107e8899845ad3d59bd9653f200f220920489ca2b5937696c3160203392a380f35b6020606492519162461bcd60e51b8352820152601960248201527f4552433732313a20617070726f766520746f2063616c6c6572000000000000006044820152fd5b8480fd5b5050346102e057816003193601126102e05780519082600180549161058c836111ec565b8086529282811690811561062357506001146105c7575b5050506105b58261036994038361105d565b51918291602083526020830190610fba565b94508085527fb10e2d527612073b26eecdfd717e6a320cf44b4afac2b0732d9fcbe2b7fa0cf65b82861061060b575050506105b582602061036995820101946105a3565b805460208787018101919091529095019481016105ee565b6103699750869350602092506105b594915060ff191682840152151560051b820101946105a3565b5050346102e057816003193601126102e05760075490516001600160a01b039091168152602090f35b83346102e457806003193601126102e45761068d611125565b600780546001600160a01b0319811690915581906001600160a01b03167f8be0079c531659141344cd1fd0a4f28419497f9722a3daafe3b4186f6b6457e08280a380f35b508290346102e05760203660031901126102e0576001600160a01b036106f5610ffa565b169081156107125760208480858581526003845220549051908152f35b608490602085519162461bcd60e51b8352820152602960248201527f4552433732313a2061646472657373207a65726f206973206e6f7420612076616044820152683634b21037bbb732b960b91b6064820152fd5b509190346102e057806003193601126102e057610782610ffa565b9160243567ffffffffffffffff81116102e0576107a290369086016110d2565b6107aa611125565b60016008540193846008558351906107c18261102b565b8382526001600160a01b038116938415610926576000878152600260205260409020546107fa906001600160a01b031615155b15611879565b84815260209760098952868220805491600160401b83101561091357507f450303c49c929e2b5d30cc374bc9ecf1893407c820081737f60ba34ce096f6db948961090a95818a819b9a978f6002908f61087c866108638d6103ef9d6108ef9f6001018155611ae6565b90919082549060031b91821b91600019901b1916179055565b60008681526002602052604090205461089f906001600160a01b031615156107f4565b84845260038252832080546001019055848352528d812080546001600160a01b031916831790557fddf252ad1be2c89b69c2b068fc378daa952ba7f163c4a11628f55a4df523b3ef8180a46115fa565b6108f981866118dc565b855191829189835289830190610fba565b0390a351908152f35b634e487b7160e01b845260419052602483fd5b855162461bcd60e51b81526020818a0181905260248201527f4552433732313a206d696e7420746f20746865207a65726f20616464726573736044820152606490fd5b5091346102e45760203660031901126102e45750610989602092356111c9565b90516001600160a01b039091168152f35b509190346102e057602091826003193601126102e45783356109ba611125565b6109c3816111c9565b6001600160a01b0393846109d6846111c9565b1680610b5f575b5090919293946009906109ef856111c9565b9685875288825280848820986001600160601b0360a01b998a8154169055169485885286886003978886528782209b6000199c8d8154019055838352600287528883209081541690557fddf252ad1be2c89b69c2b068fc378daa952ba7f163c4a11628f55a4df523b3ef8280a460068352610a6c858920546111ec565b610b00575b16865252832091835b835480821015610af55782610a8f8387611ae6565b905490861b1c14610aa95750610aa490611ac1565b610a7a565b809250959093949501908111610ae2576103f4949550610add9291610ad16108639286611ae6565b9054911b1c9184611ae6565b611b14565b634e487b7160e01b855260118652602485fd5b505050505091505080f35b8688526006835287858120610b1581546111ec565b80610b23575b505050610a71565b82601f8211600114610b3b575050555b873880610b1b565b9091808252610b58601f888420940160051c8401600185016118c5565b5555610b33565b84526009865280842095845b875480821015610bea578590610b81838b611ae6565b929054600393841b1c14610b9f575050610b9a90611ac1565b610b6b565b60009993949596979899198101908111610bd757610bcc926108638593610ad1610add9460099998611ae6565b9594939291906109dd565b634e487b7160e01b895260118b52602489fd5b5050600991929394959650610bcc565b5050346102e0576103ef6103f491610c11366110f0565b91925192610c1e8461102b565b8684526103df6103da843361133d565b83346102e4576103f4610c40366110f0565b91610c4e6103da843361133d565b611405565b508290346102e057826003193601126102e057803560243567ffffffffffffffff8111610cfb57610c8790369084016110d2565b91610c90611125565b6000828152600260205260409020546001600160a01b031615610cb85750906103f4916118dc565b606490602086519162461bcd60e51b8352820152601f60248201527f5a656e6f56657273653a20546f6b656e20646f6573206e6f74206578697374006044820152fd5b8380fd5b50346101cf57816003193601126101cf57610d18610ffa565b6024359290916001600160a01b0391908280610d33876111c9565b16941693808514610e1f57803314908115610e00575b5015610d9857848652602052842080546001600160a01b03191683179055610d70836111c9565b167f8c5be1e5ebec7d5bd14f71427d1e84f3dd0314c0f7b2291e5b200ac8c7c3b9258480a480f35b6020608492519162461bcd60e51b8352820152603d60248201527f4552433732313a20617070726f76652063616c6c6572206973206e6f7420746f60448201527f6b656e206f776e6572206f7220617070726f76656420666f7220616c6c0000006064820152fd5b90508652600560205281862033875260205260ff828720541638610d49565b506020608492519162461bcd60e51b8352820152602160248201527f4552433732313a20617070726f76616c20746f2063757272656e74206f776e656044820152603960f91b6064820152fd5b5091346102e45760203660031901126102e4575061098960209235611226565b5050346102e057816003193601126102e057805190828054610ead816111ec565b808552916001918083169081156106235750600114610ed8575050506105b58261036994038361105d565b80809650527f290decd9548b62a8d60345a988386fc84ba6bc95484008f6362f93160ef3e5635b828610610f1c575050506105b582602061036995820101946105a3565b80546020878701810191909152909501948101610eff565b925050346101cf5760203660031901126101cf573563ffffffff60e01b81168091036101cf5760209250632483248360e11b8114908115610f77575b5015158152f35b6380ac58cd60e01b811491508115610fa9575b8115610f98575b5038610f70565b6301ffc9a760e01b14905038610f91565b635b5e139f60e01b81149150610f8a565b919082519283825260005b848110610fe6575050826000602080949584010152601f8019910116010190565b602081830181015184830182015201610fc5565b600435906001600160a01b038216820361101057565b600080fd5b602435906001600160a01b038216820361101057565b6020810190811067ffffffffffffffff82111761104757604052565b634e487b7160e01b600052604160045260246000fd5b90601f8019910116810190811067ffffffffffffffff82111761104757604052565b67ffffffffffffffff811161104757601f01601f191660200190565b9291926110a78261107f565b916110b5604051938461105d565b829481845281830111611010578281602093846000960137010152565b9080601f83011215611010578160206110ed9335910161109b565b90565b6060906003190112611010576001600160a01b0390600435828116810361101057916024359081168103611010579060443590565b6007546001600160a01b0316330361113957565b606460405162461bcd60e51b815260206004820152602060248201527f4f776e61626c653a2063616c6c6572206973206e6f7420746865206f776e65726044820152fd5b1561118457565b60405162461bcd60e51b815260206004820152601860248201527f4552433732313a20696e76616c696420746f6b656e20494400000000000000006044820152606490fd5b6000908152600260205260409020546001600160a01b03166110ed81151561117d565b90600182811c9216801561121c575b602083101461120657565b634e487b7160e01b600052602260045260246000fd5b91607f16916111fb565b600081815260026020526040902054611249906001600160a01b0316151561117d565b6000908152600460205260409020546001600160a01b031690565b1561126b57565b60405162461bcd60e51b815260206004820152602d60248201527f4552433732313a2063616c6c6572206973206e6f7420746f6b656e206f776e6560448201526c1c881bdc88185c1c1c9bdd9959609a1b6064820152608490fd5b60809060208152603260208201527f4552433732313a207472616e7366657220746f206e6f6e20455243373231526560408201527131b2b4bb32b91034b6b83632b6b2b73a32b960711b60608201520190565b1561132057565b60405162461bcd60e51b815280611339600482016112c6565b0390fd5b906001600160a01b038080611351846111c9565b16931691838314938415611384575b50831561136e575b50505090565b61137a91929350611226565b1614388080611368565b909350600052600560205260406000208260005260205260ff604060002054169238611360565b156113b257565b60405162461bcd60e51b815260206004820152602560248201527f4552433732313a207472616e736665722066726f6d20696e636f72726563742060448201526437bbb732b960d91b6064820152608490fd5b9061142d91611413846111c9565b6001600160a01b03939184169284929091831684146113ab565b169182156115a95781611510575b600090838252600960205260408220805490600160401b8210156114fc577fddf252ad1be2c89b69c2b068fc378daa952ba7f163c4a11628f55a4df523b3ef93926114948861086385899560016114a498018155611ae6565b61149d886111c9565b16146113ab565b8481526004602052604081206001600160601b0360a01b9081815416905583825260036020526040822060001981540190558482526040822060018154019055858252600260205284604083209182541617905580a4565b634e487b7160e01b84526041600452602484fd5b929190600093818552600960205260408520855b81548082101561159c57869061153a8385611ae6565b929054600393841b1c1461155857505061155390611ac1565b611524565b90919293949596976000198201918211611588575091610863610add92610ad1869561158397611ae6565b61143b565b634e487b7160e01b81526011600452602490fd5b505050909192935061143b565b60405162461bcd60e51b8152602060048201526024808201527f4552433732313a207472616e7366657220746f20746865207a65726f206164646044820152637265737360e01b6064820152608490fd5b91929091803b1561170b57611647936040519081630a85bd0160e11b9384825233600483015260009687602484015260448301526080606483015281878160209a8b966084830190610fba565b03926001600160a01b03165af18491816116cb575b506116ba575050503d6000146116b2573d6116768161107f565b90611684604051928361105d565b81528091833d92013e5b805191826116af5760405162461bcd60e51b815280611339600482016112c6565b01fd5b50606061168e565b6001600160e01b0319161492509050565b9091508581813d8311611704575b6116e3818361105d565b8101031261056457516001600160e01b03198116810361056457903861165c565b503d6116d9565b50915050600190565b92939190803b1561179157611766946040518092630a85bd0160e11b9485835233600484015260018060a01b03809816602484015260448301526080606483015281806020998a956084830190610fba565b03916000988991165af18491816116cb57506116ba575050503d6000146116b2573d6116768161107f565b5050915050600190565b6000818152600260205260409020546117be906001600160a01b0316151561117d565b60009081526020906006825260408120916040518093839080546117e1816111ec565b80855291600191808316908115611857575060011461181a575b50505061180a9250038361105d565b6040516118168161102b565b5290565b86528486209492508591905b81831061183f57505061180a93508201013880806117fb565b85548884018501529485019487945091830191611826565b9250505061180a94925060ff191682840152151560051b8201013880806117fb565b1561188057565b60405162461bcd60e51b815260206004820152601c60248201527f4552433732313a20746f6b656e20616c7265616479206d696e746564000000006044820152606490fd5b8181106118d0575050565b600081556001016118c5565b6000818152600260205260409020549192916001600160a01b031615611a655760009080825260209160068352604081209085519067ffffffffffffffff8211611a515761192a83546111ec565b601f8111611a18575b508490601f831160011461199457907ff8e1a15aba9398e019f0b49df1a4fde98ee17ae345cb5f6b5e2c27f5033e8ce7969783611989575b50508160011b916000199060031b1c19161790555b604051908152a1565b01519050388061196b565b9196601f198816848452868420935b818110611a0157509160019391897ff8e1a15aba9398e019f0b49df1a4fde98ee17ae345cb5f6b5e2c27f5033e8ce7999a94106119e8575b505050811b019055611980565b015160001960f88460031b161c191690553880806119db565b9293876001819287860151815501950193016119a3565b611a4190848352868320601f850160051c810191888610611a47575b601f0160051c01906118c5565b38611933565b9091508190611a34565b634e487b7160e01b81526041600452602490fd5b60405162461bcd60e51b815260206004820152602e60248201527f45524337323155524953746f726167653a2055524920736574206f66206e6f6e60448201526d32bc34b9ba32b73a103a37b5b2b760911b6064820152608490fd5b6000198114611ad05760010190565b634e487b7160e01b600052601160045260246000fd5b8054821015611afe5760005260206000200190600090565b634e487b7160e01b600052603260045260246000fd5b8054908115611b3e5760001991820191611b2e8383611ae6565b909182549160031b1b1916905555565b634e487b7160e01b600052603160045260246000fdfea264697066735822122062691b5b5b8b83deda6493bab438e07daffd136a57425ef6374575ad9a767a8564736f6c63430008140033",
  "linkReferences": {},
  "deployedLinkReferences": {}
}